:020000040800F2
:10000000E006002045010008AF0D0008A70D00081C
:10001000AB0D0008250C0008BF1D00080000000003
:10002000000000000000000000000000710F000848
:10003000290C000800000000210E000885100008AF
:100040005F0100085F0100085F0100085F01000810
:100050005F0100085F0100085F0100085F01000800
:100060005F0100085F0100085F0100085F010008F0
:100070005F0100085F0100085F0100085F010008E0
:100080005F0100085F0100085F0100085F010008D0
:100090005F0100085F0100085F0100085F010008C0
:1000A0005F010008891300085F0100085F01000874
:1000B00099150008351600087D1700085F01000833
:1000C0005F0100085F0100085F0100085F01000890
:1000D0005F010008B51A00085F010008711B0008E5
:1000E0005F0100085F0100085F0100085F01000870
:1000F0005F0100085F0100085F0100085F01000860
:100100005F0100085F0100085F0100085F0100084F
:100110005F0100085F0100085F0100085F0100083F
:100120005F0100085F0100085F0100085F0100082F
:10013000DFF80CD000F0BCFB004800479520000819
:10014000E00600200648804706480047FEE7FEE735
:10015000FEE7FEE7FEE7FEE7FEE7FEE7FEE7FEE777
:10016000891000083101000840EA01039B0703D011
:1001700009E008C9121F08C0042AFAD203E011F8E6
:10018000013B00F8013B521EF9D27047F0B480EAFF
:100190000102D40F4200B2EB410F02D202460846E0
:1001A00011464A0042D0C30DDDB2C1F3C752AD1AA9
:1001B000202D35DAC1F3160141F4000204B1524298
:1001C000C5F1200602FA06F12A411044B3EBD05FD4
:1001D00023D0C4B1012DA0EBC35009DCF0BC4FF01B
:1001E000004202EAC352DBB200F5000000F0ACBAF4
:1001F000400000F1807000EBC350A0F1807040EA35
:10020000D170490009E0490841EAC071A0EBC35030
:1002100000F50000400800EBC350F0BC00F08BBAC2
:100220006142012202EB4101001BF6E7F0BC70477E
:1002300081F00041AAE780F00040A7E780EA0102D0
:1002400010B502F00043400022D04A001FD0010E3A
:1002500001EB1261C0F35600C2F3560240F40000F5
:1002600042F40002A0FB022000047F39140400D0F5
:10027000401C50EA124001D44000491EC2B20C0694
:1002800004EBD010401C4008802A02D003E000207C
:1002900010BD20F00100002900DA0020184310BD35
:1002A0002DE9FE4F804681EA0300C00F0C46009006
:1002B00021F0004123F00045B8EB0200A94105D22E
:1002C0004046214690461C460B46024623F000401D
:1002D000104347D0270DC7F30A00C3F30A51029019
:1002E000401A019040286BDAC3F3130040F4801BDE
:1002F0000098924620B10023D2EB030A63EB0B0B6C
:1003000001985946C0F14002504600F0F3F9064604
:100310000D4650465946019A00F0FBF910EB0800D3
:100320006141002487EA115284EAE7731A4340D0FE
:10033000009A62B3019A012A4FEA075215DC001BAA
:1003400061EB02014FF0004202EA0752CDE90042A0
:10035000001C41F5801132462B4600F032FA03B002
:10036000BDE8F08F40462146F9E7001B61EB020132
:10037000001C41F5801300185B412018A2F50017FE
:1003800047EB030140EAD570B6196D4111E06D08E5
:100390004FEA360645EAC0754FEA0752001B61EB8B
:1003A0000201001C41F5801149084FEA3000001994
:1003B000514132462B4603B0BDE8F04F00F0F2B990
:1003C0000098012240000023D0EB020263EBE073AF
:1003D000009821464FEAE074B8EB000061EB04019D
:1003E000E9E783F000435BE781F0004158E72DE93E
:1003F000FE4F81EA030404F0004421F00041009420
:100400004FF0000B23F0004350EA01045ED052EAA3
:1004100003045BD0C3F30A54C1F30A552C44A4F27D
:10042000F3340194A0FB0254C1F3130141F4801191
:10043000C3F3130343F4801301FB024400FB034E98
:10044000840A970A44EA815447EA8357A4FB076861
:1004500002958D0A05FB07854FEA932C04FB0C548B
:100460002705029D4FEA065847EA1637B5EB0805FF
:100470006EEB070C870E920E47EA811742EA831251
:10048000A7FB0201B6EB0B0164EB00042B0D43EA62
:100490000C335E1844EB1C50DA465146E7FB020170
:1004A000C5F313044FEA0B3343EA14534FEA043203
:1004B000019C43EA0603A4F10C040294009CCDE9DC
:1004C00000B400F07EF903B0BDE8F08F00200146D3
:1004D000F9E72DE9F04D81EA030404F0004B21F027
:1004E000004514464FF0000A23F0004150EA05028F
:1004F00020D054EA01021DD0C5F30A570246C5F3C5
:100500001303C1F31300C1F30A5640F4801543F4FA
:100510008013A7EB0608101BD64608F2FD3873EBD4
:10052000050002D308F1010801E092185B41B8F11F
:10053000000F03DA00200146BDE8F08D00204FF4E3
:100540008011064684460EE0171B73EB050705D3A2
:10055000121B63EB050306434CEA010C49084FEA02
:10056000300092185B4150EA0107EDD152EA0300D6
:1005700012D082EA040083EA0501084305D0101B6B
:10058000AB4106D20122002306E000224FF00043D7
:1005900002E06FF0010253101AEB06004CEB085119
:1005A00010EB0A0041EB0B01BDE8F04D00F0FAB88A
:1005B000C10F80EAE0700844CA079623002100F0CA
:1005C000C3B896230022114600F0BEB80EB540F223
:1005D000334102910021CDE900110A460B4600F09B
:1005E000F0F803B000BD20F00040C10DC0F31600CC
:1005F00040F400007F2901DA00207047962903DCCF
:10060000C1F19601C840704796398840704700F0A4
:10061000004230F000400AD0C10D01F56071C0F316
:10062000160042EA0151C2084007114370470020FA
:100630000146704730B5041E71F1000404DB4FF031
:100640000044404264EB0101141E73F1000405DB19
:100650001C464FF00043524263EB04038B4208BF39
:10066000824230BD30B5041E71F1000404DB4FF04E
:100670000044404264EB0101141E73F1000405DBE9
:100680001C464FF00043524263EB0403994208BFFB
:10069000904230BD01F0004330B421F0004150EAF7
:1006A000010206D00A0DA2F56072C1F31301002AFF
:1006B00002DC30BC00207047440F44EAC104C10092
:1006C000E01830BC00EBC25000F035B8002801DB68
:1006D000C0F10040002901DBC1F1004181427047B7
:1006E000002801DBC0F10040002901DBC1F100411D
:1006F00088427047202A04DB203A00FA02F10020E9
:1007000070479140C2F1200320FA03F3194390404F
:100710007047202A06DBCB17203A41FA02F043EA61
:10072000E07306E041FA02F3D040C2F120029140AA
:100730000843194670470029A8BF7047401C49006C
:1007400008BF20F00100704710B4B0FA80FC00FA36
:100750000CF050EA010404BF10BC704749B1CCF161
:10076000200421FA04F411FA0CF118BF01212143ED
:100770000843A3EB0C01CB1D4FEA00614FEA1020A8
:1007800042BF002010BC704700EBC350104400294A
:10079000A4BF10BC7047401C490008BF20F00100F6
:1007A00010BC704710B5141E73F1000408DA401C29
:1007B00041F1000192185B411A4301D120F0010080
:1007C00010BD2DE9F04D92469B4611B1B1FA81F270
:1007D00002E0B0FA80F220329046FFF78BFF044629
:1007E0000F4640EA0A0041EA0B0153465A460843C5
:1007F00013D0114653EA010019D0C8F14002504607
:1008000000F068F805460E46504659464246FFF746
:1008100071FF084305D0012004E020463946BDE8B9
:10082000F08D0020054346EAE0762C4337430A98D2
:100830006305E40AA0EB08000022FD0A44EA4754DD
:100840000A3002D500200146E9E701051019694187
:10085000DDE9084500196941BDE8F04DA2E770B532
:1008600021F0004303430CD0C1F30A550024D5EB1B
:10087000040564EB0403D617AD1AB34102DB002074
:10088000014670BD201841EB025170BD0EB5C10F7D
:1008900080EAE0700844CA07002140F233438DE843
:1008A0000E000A460B46FFF78CFF03B000BD0000A8
:1008B000064C074D06E0E06840F0010394E80700AD
:1008C00098471034AC42F6D3FFF736FCD831000815
:1008D000F8310008202A04DB203A21FA02F0002136
:1008E000704721FA02F3D040C2F120029140084340
:1008F000194670472DE9F04D00231A461B1A8A410C
:1009000003DB00200146BDE8F08DC1F30A52C1F3BC
:10091000130141F480154FF0000BD10702D10018EC
:100920006D41521E0027044640F2FF11384601EB8C
:10093000620A3E468046024600204FF48011FFF7CF
:10094000C9FFC2197141BB1846EB0100B4EB030C9F
:1009500075EB000C04D3E41A65EB000517460E4650
:10096000241908F101006D4180463428E3DDF919AE
:1009700046EB0600091BA84103D24FF0FF32134695
:1009800001E0002213461BEB070046EB0A51BDE8CD
:10099000F04DFFF707BF21B1826842F0010282608B
:1009A00003E0826822F001028260704710B50446BD
:1009B0001248844208D10121401500F05FFA00215D
:1009C000601500F05BFA17E00D48844208D1012160
:1009D000001500F053FA0021201500F04FFA0BE04B
:1009E0000848844208D10121C80300F047FA0021D9
:1009F0004FF4004000F042FA10BD00000024014016
:100A000000280140003C0140014600208A6802F0B5
:100A100004020AB1012000E0002070470146C86CC2
:100A200080B270470246002013680B400BB10120D2
:100A300000E000207047014600208A6802F00802AA
:100A40000AB1012000E000207047000030B50246E6
:100A50000020002350680F4C20400D790C6844EAB8
:100A600005242043506090680B4C2040D1E902548B
:100A70002C434D7944EA450420439060D06A20F429
:100A800070000C7C641EE4B2234340EA0350D06241
:100A900030BD0000FFFEF0FFFDF7F1FFF0B50446AA
:100AA0000D4600200021092D11DDE068A5F10A06A0
:100AB00006EB4607072606FA07F18843A5F10A0662
:100AC00006EB460603FA06F10843E0600CE02069F5
:100AD00005EB4507072606FA07F1884305EB4506AF
:100AE00003FA06F108432061072A0FDA606B561EED
:100AF00006EB86071F2606FA07F18843561E06EB0B
:100B0000860605FA06F10843606322E00D2A0FDA33
:100B1000206BD61F06EB86071F2606FA07F18843CF
:100B2000D61F06EB860605FA06F10843206310E09F
:100B3000E06AA2F10D0606EB86071F2606FA07F10A
:100B40008843A2F10D0606EB860605FA06F1084376
:100B5000E062F0BD816841F008018160704721B119
:100B6000826842F4A002826003E0826822F4A0025C
:100B700082607047816841F0040181607047000025
:100B800000B587B001214FF4017000F067F94FF410
:100B9000004000F047F90D20ADF8040000208DF86A
:100BA000070001A91C4800F040F80320ADF804003C
:100BB00000208DF8070001A9184800F036F8184801
:100BC000FFF7F4FE002002908DF80C008DF80D0068
:100BD0004FF4602004900020059001208DF818004B
:100BE00002A90F48FFF732FF01210D48FFF7D3FE9E
:100BF0000B48FFF7AFFF00BF0948FFF71CFF0028B5
:100C0000FAD10748FFF7B6FF00BF0548FFF7FCFE23
:100C10000028FAD107B000BD00080140000C0140D7
:100C20000024014000BFFEE770472DE9F041024675
:100C300000250026002000230024002791F803C08F
:100C40000CF00F0591F803C00CF0100CBCF1000F74
:100C500003D091F802C04CEA050591F800C0BCF140
:100C6000000F31D0146800202BE04FF0010C0CFA7B
:100C700000F3B1F800C00CEA03069E4220D18300C5
:100C80004FF00F0C0CFA03F7BC4305FA03FC4CEAD7
:100C9000040491F803C0BCF1280F06D14FF0010CF9
:100CA0000CFA00FCC2F814C00AE091F803C0BCF1D1
:100CB000480F05D14FF0010C0CFA00FCC2F810C02F
:100CC000401C0828D1D31460B1F800C0BCF1FF0F5C
:100CD00034DD546800202EE000F1080C4FF00108CC
:100CE00008FA0CF3B1F800C00CEA03069E4221D1C9
:100CF00083004FF00F0C0CFA03F7BC4305FA03FC1A
:100D00004CEA040491F803C0BCF1280F05D100F1AE
:100D1000080C08FA0CF8C2F8148091F803C0BCF172
:100D2000480F07D100F1080C4FF0010808FA0CF841
:100D3000C2F81080401C0828CED35460BDE8F08172
:100D40000161704710B50446072301222146094876
:100D5000FFF7A4FE01210748FFF701FF00BF0221B2
:100D60000448FFF75FFE0028F9D00248FFF756FE5F
:100D700010BD0000002401402DE9F04107460C465B
:100D80000025002608E03846FFF7DCFF0544012077
:100D900001F022F9701CC6B2A642F4DBB5FBF4F0F8
:100DA00080B2BDE8F08100BFFEE700BFFEE77047FC
:100DB00070B5002100230F22C47804B3154C2468B9
:100DC00004F4E064C4F5E064210AC1F10403CA40FC
:100DD000447804FA03F184781440214309010E4C4D
:100DE0000678A155047804F01F050124AC4005786D
:100DF0006D11AD0005F1E025C5F8004109E004786A
:100E000004F01F050124AC40044D0678761145F826
:100E1000264070BD0CED00E000E400E080E100E061
:100E20007047000001460020034A506820F440400B
:100E300008435060704700000010024029B1064A84
:100E4000D2690243044BDA6104E0034AD269824367
:100E5000014BDA61704700000010024029B1064AD8
:100E600092690243044B9A6104E0034A9269824307
:100E7000014B9A61704700000010024029B1064AF8
:100E8000D2680243044BDA6004E0034AD26882432A
:100E9000014BDA60704700000010024030B50021BD
:100EA0000022002400232D4D6D6805F00C0121B1B6
:100EB000042905D0082923D105E0294D056022E049
:100EC000274D05601FE0254D6D6805F47012234D18
:100ED0006D6805F48034022505EB92421CB9214D62
:100EE000554305600BE01D4D6D6805F400351DB1DF
:100EF0001C4D5543056002E0194D5543056002E065
:100F0000174D056000BF00BF144D6D6805F0F0017E
:100F10000909154D6B5C0568DD4045600F4D6D6836
:100F200005F4E061090A104D6B5C4568DD408560A1
:100F30000A4D6D6805F46051C90A0B4D6B5C45683C
:100F4000DD40C560054D6D6805F44041890B074DD6
:100F50006B5CC568B5FBF3F5056130BD0010024060
:100F600000127A0000093D003E0000204E000020E3
:100F7000704710B500F002F810BD00000CB500205D
:100F8000019000903348006840F480303149086097
:100F900000BF3048006800F4003000900198401C09
:100FA0000190009818B90198B0F5A06FF1D12948C7
:100FB000006800F4003010B10120009001E0002032
:100FC00000900098012843D12348006840F01000A9
:100FD000214908600846006820F0030008600846C0
:100FE000006840F0020008601A48406819494860EB
:100FF0000846406848600846406840F480604860A1
:101000000846406820F47C1048600846406840F478
:10101000E81048600846006840F08070086000BF33
:101020000C48006800F000700028F9D009484068BA
:1010300020F00300074948600846406840F002007D
:10104000486000BF0348406800F00C000828F9D150
:101050000CBD00000010024000200240042808D10E
:101060004FF0E021096941F004014FF0E0221161E5
:1010700007E04FF0E021096921F004014FF0E02280
:10108000116170477047000010B51348006840F0C8
:1010900001001149086008464068104908400E499F
:1010A0004860084600680E4908400B490860084639
:1010B000006820F4802008600846406820F4FE00A4
:1010C00048604FF41F008860FFF753FF4FF0006047
:1010D0000449086010BD0000001002400000FFF845
:1010E000FFFFF6FE08ED00E0F0B50C4615460022C5
:1010F0000021068C4FF6FE773E400684028B018C61
:101100004FF60C7632407E1C06EA03162E4332431D
:10111000104EB0420ED0104EB0420BD0B0F1804F06
:1011200008D00E4EB04205D00D4EB04202D00D4E4A
:10113000B04206D14FF6FD76314044F0010631430E
:1011400005E04FF6F576314044F001063143028365
:101150000184F0BD002C0140003401400004004037
:1011600000080040000C0040F0B50C461546002277
:1011700000210026078C4FF6EF7C07EA0C07078456
:10118000028B018C4FF6FF7707EA041640F6FF4703
:101190003A404FF6FF7707EA03373A434FF6FF77B7
:1011A00007EA05273A43114FB8420ED0104FB84214
:1011B0000BD0B0F1804F08D00E4FB84205D00E4F83
:1011C000B84202D00D4FB84206D14FF6DF77394012
:1011D00046F01007394305E04FF65F77394044F099
:1011E0001007394302830184F0BD0000002C014048
:1011F000003401400004004000080040000C0040A2
:10120000F0B50C461546002200210026078C4FF64B
:10121000FF6C07EA0C070784828B018C4FF6FF777F
:1012200007EA04264FF60C773A404FF6FF7707EAB5
:1012300003172F433A43114FB8420ED0104FB84214
:101240000BD0B0F1804F08D00E4FB84205D00E4FF2
:10125000B84202D00D4FB84206D14FF6FF57394081
:1012600046F48077394305E04FF2FF57394044F4A4
:101270008077394382830184F0BD0000002C014057
:10128000003401400004004000080040000C004011
:10129000F0B50C461546002200210026078C4EF6BC
:1012A000FF7C07EA0C070784828B018C4FF6FF77DF
:1012B00007EA043640F6FF473A404FF6FF7707EA61
:1012C00005273A434FF6FF7707EA03373A43114FB2
:1012D000B8420ED0104FB8420BD0B0F1804F08D0BA
:1012E0000E4FB84205D00E4FB84202D00D4FB84253
:1012F00006D14DF6FF77394046F48057394305E073
:1013000047F6FF57394044F48057394382830184BC
:10131000F0BD0000002C01400034014000040040FA
:1013200000080040000C00407FB505460C46012136
:10133000C802FFF793FDADF80850ADF80440002057
:10134000ADF80A00ADF8060001A90E4800F060FBF8
:10135000012211460B4800F0C1FA19208DF8000057
:1013600001208DF8010003208DF8020001208DF886
:1013700003006846FFF71CFD0121024800F037FA20
:101380007FBD0000002C01402DE9F04F89B0012104
:101390006F4800F03BFA00287ED001216C4800F035
:1013A00023FA6C4800686C4908606C480068694919
:1013B00008606B4800686B490968081A6A4909683F
:1013C0000844A0F5FA606749086008460068674964
:1013D000096890FBF1F061490860002064490870D9
:1013E0000EE05F4962480078401C51F82000604AD6
:1013F000127841F822005E480078401C5C49087071
:101400005A480068401E5A4909788842E9DC564823
:101410000068A0F5FA6055490968491E504A42F82B
:1014200021004D480068FFF7C3F805905148016856
:101430000598FEF703FF079046480068FFF7B8F8E5
:1014400003904C4801684FF08040FEF7F7FE019092
:10145000494801680198FEF799FE02900399FEF74A
:10146000EDFE05903D480068FFF7A2F80390434861
:10147000016841480068FEF789FE01903D48016817
:101480000198FEF783FE02900399FEF7D7FE0490C1
:101490000599FEF7CDFE00E057E006900799FEF7AC
:1014A00075FE0890FFF7B3F880460022344BFFF733
:1014B00010F804460D4633480068FFF7A8F80646C2
:1014C00022462B46FEF7ECFE8246FFF7E3F82D4955
:1014D000086008460068FFF79AF8044600222A4B85
:1014E000FFF7C0F803D229482649086008E0002128
:1014F00024480068FFF7EAF802D20020214908607A
:1015000020480068FFF76FF8044601F089FD204885
:10151000006800F087FD20211E4800F04CFC00BF51
:1015200040211C4800F07AFB0128F9D10E480068E0
:1015300000F078FD3B21174800F03DFC00BF402142
:10154000144800F06BFB0128F9D109B0BDE8F08F19
:10155000002C014030000020340000202C0000202E
:101560007000002010000020140000202400002043
:1015700028000020080000200000002004000020B7
:1015800080842E413800002000408F4000007A44C3
:10159000180000200038014010B50121880700F034
:1015A00035F918B10121880700F01EF910BD0000BF
:1015B00030B589B005460C4601210846FFF73EFCD0
:1015C00001210520FFF74AFC0220ADF82000182079
:1015D0008DF8230003208DF8220008A91448FFF796
:1015E00024FBADF81850ADF814400020ADF81A00F7
:1015F000ADF8160005A94FF0804000F009FA602010
:10160000ADF804000120ADF806000020ADF80C0094
:1016100001A94FF0804000F06BF90821C80600F0E6
:10162000B9F90121880700F0E2F809B030BD0000E7
:101630000008014010B50121044800F0E7F818B196
:101640000121024800F0D0F810BD00000004004065
:1016500030B589B005460C4601210220FFF7EEFBAC
:1016600001210520FFF7FAFB8020ADF820001820AB
:101670008DF8230003208DF8220008A91348FFF7F6
:10168000D4FAADF81850ADF814400020ADF81A00A7
:10169000ADF8160005A90E4800F0BAF96020ADF8C3
:1016A00004000120ADF806000020ADF80C0001A9EF
:1016B000074800F01DF90821054800F06BF90121E9
:1016C000034800F094F809B030BD00000008014064
:1016D0000004004030B585B005460C4601210420C9
:1016E000FFF7ACFB01210820FFF7B8FB4020ADF865
:1016F000100028208DF8130004A91D48FFF795FA63
:1017000040211B48FFF71CFBADF80850ADF8044022
:101710000020ADF80A00ADF8060001A9154800F058
:1017200077F9002014490880488001208880002033
:10173000C88008810F4800F07BF81E208DF800005B
:1017400002208DF8010000208DF8020001208DF8A4
:1017500003006846FFF72CFB01220321054800F037
:10176000BDF80121034800F042F805B030BD00008B
:10177000000C014000080040C000002010B501210D
:10178000154800F043F838B14CF250301349086066
:101790000021114800F00DF902210F4800F036F841
:1017A000A8B10D4800F02FF80C49086000210A4844
:1017B00000F0FFF80A480068401C09490860084624
:1017C00000680849884202D10020054908600321C9
:1017D000014800F009F810BD000800401400002086
:1017E0001800002000CA9A3BCA430282704721B108
:1017F000028842F00102028004E002884FF6FE7384
:101800001A40028070470146888E704730B5024604
:10181000002000230024158A05EA0103958905EAC2
:10182000010413B10CB1012000E0002030BD000024
:1018300070B505460C46244885420ED023488542A3
:101840000BD0B5F1804F08D02148854205D0214802
:10185000854202D02048854200D100E000BF2088A8
:1018600050B92389A28861882846FFF73DFCE188AA
:10187000284600F0A0F825E0208804280AD1238912
:10188000A28861882846FFF76FFCE188284600F0AF
:101890009BF817E0208808280AD12389A28861884C
:1018A0002846FFF7ADFCE188284600F09AF809E0E9
:1018B0002389A28861882846FFF7EAFCE188284648
:1018C00000F098F870BD0000002C01400034014089
:1018D0000004004000080040000C00401AB1838959
:1018E0000B43838102E083898B438381704700002F
:1018F00070B5002400220023058C4FF6EF763540AA
:101900000584028C8388048B48F6FF752C404FF6C3
:10191000FF452C400D884FF6FF7606EA05252C433F
:101920004FF6DF752A400D8906EA05152A434D88D2
:1019300006EA05152A43154DA84202D0144DA842C7
:101940001DD14FF67F752A404D894FF6FF7606EA86
:1019500005152A434FF6BF752A408D8806EA0515FE
:101960002A434FF6FF352B404FF2FF752B408D89F0
:1019700006EA85052B43CD8906EA85052B4383803E
:101980000483CD880587028470BD0000002C0140CF
:10199000003401400A460021018B4FF2FF731940C9
:1019A0004FF6FF7303EA022319430183704701874F
:1019B000704781847047028B4FF6F3731A4002839D
:1019C000028B0A4302837047028B4FF2FF331A40A7
:1019D0000283028B4FF6FF7303EA01231A4302834B
:1019E0007047828B4FF6F3731A408283828B0A43CF
:1019F00082837047828B4FF2FF331A408283828B3F
:101A00004FF6FF7303EA01231A43828370470000F5
:101A1000002202881D4B98420ED01D4B98420BD0DD
:101A2000B0F1804F08D01B4B984205D01A4B98421A
:101A300002D01A4B984204D14FF68F731A404B884C
:101A40001A43174B984207D0164B984204D04FF6D2
:101A5000FF431A40CB881A4302808B8883850B880A
:101A600003850A4B98420BD0094B984208D00E4B85
:101A7000984205D00D4B984202D00D4B984201D1AF
:101A80000B7A03860123838270470000002C0140FB
:101A9000003401400004004000080040000C0040F9
:101AA000001000400014004000400140004401408C
:101AB0000048014010B540F22551264800F0BBF81F
:101AC000002845D0234800F071F9C4B2232C02D17C
:101AD00001202149087020480078012838D1232CA2
:101AE00036D0242C09D01D481D49097844541C487F
:101AF0000078401C1A4908702AE000201649087036
:101B0000184908801849087011E0144816490978E6
:101B1000405C30381349098801EB810100EB41003A
:101B20001049088010480078401C0F4908700E4882
:101B300000780B4909788842E7DB0A4800880B499E
:101B4000088000200449087006490880044908708C
:101B500010BD0000003801401C000020CA00002019
:101B60001E000020200000201D0000202200002078
:101B700010B500211F48FFF73AFE40F225511E48DC
:101B800000F059F810B31C4800F010F904461B4847
:101B9000008800F40040C8B91848008800F480406C
:101BA00060B1452C03D000201449088021E013487F
:101BB000008840F40040114908801AE04E2C06D1FC
:101BC0000E48008840F480400C49088011E00B4921
:101BD0000988C1F30D010A4A545408480088401C82
:101BE0000649088008460088B0F5967F01DB002092
:101BF000088010BD002C0140004800403C0000203F
:101C0000E800002021B1828942F40052828104E080
:101C100082894DF6FF731A40828170470246002088
:101C2000B1F5007F00D100BF13880B400BB101203C
:101C300000E00020704770B5024600240023002514
:101C4000002040F66A16B14200D100BFC1F3421530
:101C500001F01F03012606FA03F3012D02D1968934
:101C6000334006E0022D02D1168A334001E0968A05
:101C700033400C12012606FA04F41688344013B1DE
:101C80000CB1012000E0002070BDF0B50346002437
:101C900000260025002040F66A17B94200D100BF97
:101CA0001846C1F3421401F01F06012707FA06F592
:101CB000012C01D10C3004E0022C01D1103000E0E5
:101CC00014301AB107682F43076002E00768AF437A
:101CD0000760F0BD2DE9F04786B005460E460024AA
:101CE000A24600BFA1460027B08900B100BF2F4621
:101CF0002C8A4CF6FF700440F08804432C82AC8997
:101D00004EF6F3100440B0883189084371890843C6
:101D10000443AC81AC8A4FF6FF400440B0890443D1
:101D2000AC8201A8FFF7BAF81F48874202D1DDF85C
:101D300010A001E0DDF80CA0A88900F4004040B13B
:101D40000AEBCA0000EB0A1031684900B0FBF1F859
:101D500007E00AEBCA0000EB0A1031688900B0FB0B
:101D6000F1F86420B8FBF0F004012009642101FBC4
:101D70001089A88900F4004040B1322000EBC9006E
:101D8000B0FBF1F000F00700044308E0322000EB64
:101D900009106421B0FBF1F000F00F0004432C8126
:101DA00006B0BDE8F0870000003801400146888891
:101DB000C0F308007047C1F308028280704700BF7B
:101DC000FEE7490050EAC12018BF04204A0D18BFA1
:101DD00040F0010040F2FF72B2EB515F08BF40F0EB
:101DE0000200012808BF052070472DE9F0414F1E71
:101DF00000EBC7010446D1E9000115461E4637F045
:101E000006020DD02A463346FEF7F1FA7F1E04EB98
:101E1000C703D3E90023FEF743FA37F00602F1D1F6
:101E2000022F25D0042F13D0062F18BFBDE8F08154
:101E30002A463346FEF7DBFAD4E90A23FEF730FAE6
:101E40002A463346FEF7D3FAD4E90823FEF728FAE8
:101E50002A463346FEF7CBFAD4E90623FEF720FAEA
:101E60002A463346FEF7C3FAD4E90423FEF718FAEC
:101E70002A463346FEF7BBFAD4E90223FEF710FAEE
:101E80002A463346FEF7B3FAD4E90023BDE8F04111
:101E9000FEF706BA0022134610460149FEF719BBA9
:101EA0000000F03FFEF7FCB9002213461046114631
:101EB000FEF70FBB40F2013200204FF0E041FEF789
:101EC000CEBC0000024A00201107FEF7C8BC00008B
:101ED00001FDFFFF02E008C8121F08C1002AFAD165
:101EE00070477047002001E001C1121F002AFBD19A
:101EF0007047000001490860704700006C00002036
:101F000000B587B001210820FEF7A8FF0121880451
:101F1000FEF794FF4FF40060ADF8180004208DF830
:101F20001B0006A91948FEF780FE27208DF8040043
:101F300000208DF8050001208DF806008DF80700BF
:101F400001A8FEF735FF4FF4165002900020ADF8BF
:101F50000C00ADF80E004FF4C060ADF8100000208A
:101F6000ADF814000420ADF8120002A90848FFF7EC
:101F7000B1FE012240F225510548FFF786FE0121FE
:101F80000348FFF73FFE07B000BD0000000C014012
:101F90000048004010B56FF00400FFF75FF80A48F2
:101FA00000680A49B0FBF1F009490870084600785A
:101FB00000EB4001C1EBC0104FF6FF7101EAC00019
:101FC0000449088010BD00005400002000127A006F
:101FD000680000206A0000200146114A12884A4326
:101FE0004FF0E0235A6100229A611A46126942F0CA
:101FF00001021A6100BF4FF0E022106900F00102F7
:102000001AB100F48032002AF5D04FF0E0221269B4
:1020100022F001024FF0E0231A6100229A6170471A
:102020006A00002070B50446002554B930211748D5
:10203000FFF7C1FE00BF40211448FFF7EFFD012864
:10204000F9D10DE00A20B4FBF0F100FB1146B4FB1E
:10205000F0F406F130000E4921F81500681CC5B2F5
:10206000002CEFD10FE0681E094A32F81010074823
:10207000FFF7A1FE00BF40210448FFF7CFFD012874
:10208000F9D1681EC5B2002DEDDC70BD00380140ED
:10209000D4000020B2B000253C22FE4921A8FEF762
:1020A00063F81422FB493C311CA8FEF75DF8F94A9D
:1020B000503207CA19AB07C31422F6495C3114A881
:1020C000FEF752F8F4481390FFF764FFFEF758FD4F
:1020D00000F0B0FF062140F2CF70FFF7B9FA4721B8
:1020E00044F61F60FFF764FA08214CF25030FFF706
:1020F000F1FA40F6FF616320FFF716F9FFF700FFE2
:1021000073E203210020FEF737FE8346FEF75EFAF6
:102110000022E24BCDE90A01FEF7DBF9CDE90C0123
:10212000FEF7B8FA804603210220FEF725FE83461B
:10213000FEF74CFA0022D94BCDE90A01FEF7C9F9A6
:10214000CDE90C01FEF7A6FA824603210846FEF708
:1021500013FE8346FEF73AFA0022D04BCDE90A017E
:10216000FEF7B7F9CDE90C01FEF794FA8146032199
:102170000820FEF701FE074603210920FEF7FCFDBB
:10218000064600242FE004EB440121AA02EB810162
:1021900088684946FEF752F804EB440121AA02EB95
:1021A00081010D9048685146FEF748F804EB440160
:1021B00021AA0B9052F821004146FEF73FF80A9001
:1021C0000B99FDF7E3FF0C900D99FDF7DFFF8346B8
:1021D00014A850F824105846FDF7D8FF0EA941F86E
:1021E0002400601CC4B2052CCDDB002452E00EA8F4
:1021F00050F8240080F0004B5846FEF708FA0246DB
:102200000B46CDE90001A648A64900F0FBF9CDE94F
:1022100004010EA951F82400FEF7F9F902460B4615
:10222000CDE900019E489F4900F0ECF9CDE902019B
:10223000DDE90423FEF734F8CDE908010EA850F8D3
:10224000240080F0004B5846FEF7E1F902460B46A9
:10225000CDE902019248934900F0D4F900224FF0F1
:102260008043CDE90401FEF7C2F8CDE90601DDE9BE
:102270000823FEF72EF900228B4BCDE90A01FEF769
:10228000B3F8CDE90C01FEF705FA0EA941F82400D8
:10229000601CC4B2052CAADB12992098FDF7CEFF72
:1022A0000D9011991F98FDF7C9FF0B9010991E987A
:1022B000FDF7C4FF09900F991D98FDF7BFFF079028
:1022C0000E991C98FDF7BAFF059049461B98FDF73B
:1022D000B5FF039051461A98FDF7B0FF01904146B3
:1022E0001998FDF7ABFF00900199FDF74FFF0290A1
:1022F0000399FDF74BFF04900599FDF747FF069002
:102300000799FDF743FF08900999FDF73FFF0A90F1
:102310000B99FDF73BFF0C900D99FDF737FF8346B6
:102320001399FDF733FF31903198FEF770F90022D1
:102330005E4BCDE90A01FEF75AF8CDE90C01FEF734
:10234000A9F931905A493198FDF778FF8346FEF795
:102350005EF90022574BCDE90801FEF7BAF80022DA
:10236000554BCDE90A01FDF79BFFCDE90C01FEF7C6
:1023700091F9309051493198FDF760FF83465049FB
:10238000FDF704FF31903198FEF72DF94D490860B3
:102390004046FEF73CF94C4A4C4BCDE90C01FEF7A8
:1023A00049F911D24846FEF732F9474A474BCDE981
:1023B0000C01FEF73FF907D2B74202DD0020309052
:1023C0002FE0434830902CE04046FEF720F93E4A8B
:1023D0003E4BCDE90C01FEF72DF90CD24846FEF735
:1023E00016F9394A394BCDE90C01FEF73BF902D217
:1023F0000020309015E04046FEF709F9324A334B91
:10240000CDE90C01FEF72EF90BD24846FEF7FFF896
:102410002D4A2E4BCDE90C01FEF70CF901D22C48C8
:102420003090B7F5426F04DBB6F5426F01DB204810
:10243000309000213098FEF749F903D2002000F0D7
:10244000E3FD11E022493098FEF74AF904D240F248
:102450001A4000F0D9FD07E03098FEF7C4F81FFAE3
:1024600080FB584600F0D0FD1A48008800F4004078
:10247000002871D00A211848FFF79DFC00BF4021B9
:102480001548FFF7CBFB0128F9D100251348007848
:10249000702825E0D83000084128283F00408F40B0
:1024A0009B91048B0ABF05400000F03F000059409B
:1024B0000000FA4300006940003081400000C8423B
:1024C000005043470C0000209A9999999999C93F67
:1024D000004083443C00002000380140E800002018
:1024E00026D142484078702822D141480088C0F364
:1024F0000D00401E3D49085C6E2819D100BF022422
:1025000009E03A48005D05EB850100EB4100A0F1D0
:102510003005601CC4B236480088C0F30D00401E70
:10252000A042EEDC2846FEF74CF83249086055E040
:102530002E480078692827D12C484078692823D173
:102540002B480088C0F30D00401E2849085C6E2807
:102550001AD1002502240AE047E02448005D05EB7B
:10256000850100EB4100A0F13005601CC4B2204899
:102570000088C0F30D00401EA042EEDC2846FEF7A6
:1025800020F81D49086029E018480078642825D102
:1025900016484078642821D115480088C0F30D0002
:1025A000401E1249085C6E2818D10025022409E05B
:1025B0000E48005D05EB850100EB4100A0F1300500
:1025C000601CC4B20A480088C0F30D00401EA0423F
:1025D000EEDC2846FDF7F5FF0849086000200449B5
:1025E000088001210648FFF702F98AE5E80000208B
:1025F0003C00002000000020040000200800002013
:10260000002C01402DE9F04D16460F4694B01C46B3
:1026100021F0004123F00042002814BF4FF0010CCC
:102620004FF0000C0CEB470CFE4B0CEB03054FEA94
:10263000630C65452BD3350018BF012505EB440518
:102640001D44F94B9D4222D3F84B52EA060C02D0AE
:102650009F4205D148B914B000201946BDE8F08D5D
:10266000002808BF4FF0000C01D04FF0010C0CEB1C
:10267000470313F5001F0AD8002E14BF4FF0010CBA
:102680004FF0000C0CEB440313F5001F07D914B0F6
:10269000324623463946BDE8F04DFFF703BCDFF86C
:1026A00090834FF0000A002FB8BF424523DAE14B78
:1026B0009A42A8BF4FF0020A1DDADC4B93421ADCA3
:1026C000DD4B03EB2253142B08DDC3F1340C26FA47
:1026D0000CF303FA0CFCB4450DD108E05EB9C3F16C
:1026E000140C22FA0CF303FA0CFC944503D103F00A
:1026F0000103C3F1020A51EA00031BD1002C19DACD
:10270000002F18BFBAF1020F02D0BAF1010F07D0A3
:102710000220FFF7EFFB14B0BDE8F04DFFF7BABBA6
:102720000220FFF7E7FBFFF7B5FB14B081F0004193
:10273000BDE8F08D330070D1424525D107F18042CC
:1027400012F5801201BF00280020B84914B008BF5C
:10275000BDE8F08DB548884207DC002CA1BF1846C3
:10276000214614B0BDE8F08D07E0002CBFBF18462D
:1027700084F0004114B0BDE8F08DB0497944D1E94E
:10278000000114B0BDE8F08DDFF8A0C262452AD187
:10279000002C24DA39B1414517D1002804BF0020AC
:1027A00002461CD106E040B10220FFF7A3FBFFF771
:1027B00081FB0A46394600F0D7BA9D4A394614B023
:1027C000002062F31E01BDE8F08D08DA14B03B462C
:1027D000BDE8F04D024600206146FDF77ABE14B018
:1027E0003946BDE8F08D414517DAB4F1804F0CD081
:1027F000A4F10053B3F1FF530FD13B1E0DDB14B016
:102800001946BDE8F04D00F0D9BB3B4614B0024676
:10281000BDE8F04D1946FDF7EABD050027F000437D
:102820003AD1E1B1414537D1002F06DD002CA1BFDF
:102830000020414614B0BDE8F08D002F01DD002CD2
:102840001FDB002F16DA002C14DBBAF1010F4FF05A
:10285000000014BF76497A4914B0BDE8F08DBAF192
:10286000020F18BF002F0CD0BAF1010F09D1002FB1
:1028700007DA0BE0002FB8BF002C0DDABAF1010F18
:1028800004D0002014B00146BDE8F08D14B0002043
:102890004FF00041BDE8F08D4FF0010808EBE77CF8
:1028A000CDF814C05CEA0A0C0DD0DFF898C162457F
:1028B0007EDDDFF894C1654B624512DD8B420ADB99
:1028C000002C18DB23E00120FFF714FB14B0BDE857
:1028D000F04DFFF7E9BA554A8A4202DC002C0ADCC7
:1028E00015E0994202DA002C11DA04E04F4B9942CC
:1028F00019DD002C0BDD0220FFF7FCFAFFF7DAFAF6
:102900004B4A14B061F31E021146BDE8F08D02205F
:10291000FFF7F0FAFFF7D6FA444A14B061F31E024B
:102920001146BDE8F08D00223946FDF75AFD0746F5
:102930000D466FF00102FDF792FF4FF05532444B08
:10294000FDF752FD3A462B46FDF751FD0022414B63
:10295000FDF74AFD80468B463A462B4610461946FF
:10296000FDF745FD42465B46FDF741FD88460E906A
:102970004FF0C042384B38462946FDF738FD8346B4
:102980000091364A344B41460E98FDF730FD8046A3
:102990000191334A334B38462946FDF728FD42461C
:1029A000019BFDF71EFD0D4602460B460C9000E014
:1029B00011E058460099FDF773FC002788465A46F7
:1029C0003846009BFDF70DFD2B460C9AFDF70CFDDC
:1029D000024600F079B90020B1F5801F07DA3522F0
:1029E00028461946FDF73BFF05466FF0340000EB23
:1029F0002150A0F2FF300190C1F3130040F07F613D
:102A000041F04051029118498842D8BF4FF0000B65
:102A100035DD16498142C8BF4FF0010B2FDC4FF066
:102A2000000B25E0FFFF1F00FFFF0F000000F03F3D
:102A30000000F07F0000404301FCFFFF500A00004F
:102A40000000F0FF0000E0410000F043FFFFEF3F17
:102A50005555D53F0000E03F4715F73FFE822B65F7
:102A600044DF5DF80BAE543E8E9803007AB60B003F
:102A70000198401C01900298A0F580100290FF4838
:102A80000299784400EBCB000991D0E90023284655
:102A90000B931292FDF7A5FC00910A9028460B9B20
:102AA000129A0999FDF7FCFB02460B460020F449F7
:102AB000FDF70FFDCDE90C010B46024600990A987F
:102AC000FDF795FC0690EF48884600277844029968
:102AD000006810904FF0005040EA610000EB8B401E
:102AE00000F5002102910B9B129A1098FDF779FCDA
:102AF0002A46099BFDF778FC3A464346FDF777FCEA
:102B00000891129038464146029B109AFDF76FFCDF
:102B1000009B0A9AFDF768FC089B129AFDF761FC7E
:102B2000DDE90C23FDF763FC0B91069A12904346F6
:102B300010461946FDF75BFC05460246D2480B4697
:102B40000A9106217844FFF750F90A9B2A4608911A
:102B5000029010461946FDF74AFC089B029AFDF7C1
:102B600046FC05460991434638461946069AFDF744
:102B700097FB0B9B129AFDF73AFC2A46099BFDF73F
:102B80008FFBCDE908013A46434610461946FDF74A
:102B90002EFC0A910022BD4B0090FDF781FBDDE980
:102BA0000823FDF77DFB0D463A46B84B3846FDF746
:102BB00018FC0A9B009AFDF714FCDDE90823FDF7D9
:102BC00013FCCDE908013A462B4610464146FDF775
:102BD0000EFC00910A90DDE908014346069AFDF7D4
:102BE00006FC069088462B463A460B991298FDF74C
:102BF000FEFB4346069AFDF753FB80460B46024612
:102C00000D9100990A98FDF74BFB00200F460546F1
:102C1000009B0A9AFDF7E5FB42460D9BFDF7E4FB9E
:102C200088460E904FF06042994B28463946FDF792
:102C3000DEFB02910090974A954B41460E98FDF7B6
:102C4000D6FB80460391944A944B28463946FDF7BB
:102C5000CEFB4246039BFDF723FB914A7A4402EBED
:102C6000CB03D3E90023FDF71BFB05460791019831
:102C7000FDF70CFE0C9003912A46079B02990098E1
:102C8000FDF70EFB874A7A4402EBCB03D3E900231E
:102C900093460193FDF704FB039B0C9AFDF700FBA1
:102CA000002788463846039B0C9AFDF79AFB5A4644
:102CB000019BFDF796FB029B009AFDF792FB2A46CB
:102CC000079BFDF791FB02460020069005986C4D8E
:102CD000AAF10103184301D1734D069000200B4661
:102CE000049030462146FDF782FB82468B46234600
:102CF00030461946049AFDF774FB3A464346FDF701
:102D000076FB52465B46FDF7CBFA06468A463A46C4
:102D1000434621460498FDF76AFB04460F463246B7
:102D20005346FDF7BDFA614A8B46914221DBABEB7E
:102D3000020353EA000210D122463B46FDF751FB45
:102D4000804603915A4A5B4B30465146FDF7A8FA3C
:102D50004246039BFDF786FC27D20220FFF7CAF804
:102D6000FFF7A8F80A46294614B062F31E01BDE831
:102D7000F08D514B2BF000429A4216D34F4A0BEB89
:102D8000020353EA000208D122463B46FDF729FB25
:102D900032465346FDF766FC07D80220FFF7AAF833
:102DA000FFF790F80A462946DEE72BF00040444939
:102DB000444A01EB20514FF00008824223DA481CBC
:102DC0004FF4801121FA00F058443F4AC0F30A51F1
:102DD0007A443E4BA1F2FF31CB4020EA0303C0F31B
:102DE000130040F4801CC1F1140012682CFA00F8A2
:102DF000BBF1000FB8BFC8F1000820463946FDF707
:102E0000F0FA04460F4622463B4630465146FDF74F
:102E100047FA4FF0000B5A462D4B58460391FDF7E9
:102E2000E6FA00910A902B4A2B4B58460399FDF77E
:102E3000DEFA0491029022463B4658460399FDF77C
:102E4000D0FA32465346FDF7CFFA244A244BFDF719
:102E5000CEFA049B029AFDF723FA07468A46009BA6
:102E60000A9AFDF71DFA04460E46009B0A9AFDF7E2
:102E7000B8FA3A465346FDF7B7FA33E0C206000007
:102E80000000F03F0007000030060000000008408E
:102E900009C7EE3FFD033ADCF5015B14E02F3EBEAF
:102EA00008050000CE0400000000F0BF00009040C4
:102EB000FE822B654715973C00CC904000346F3F55
:102EC00001FCFFFF0000E03FFC030000FFFF0F00DC
:102ED000432EE63F396CA80C615C20BEEF39FAFE48
:102EE000422EE63F0746224633460F9110461946CA
:102EF000FDF77DFA834602462E488A460B46052199
:102F00007844FEF772FF5A465346FDF770FA2246A0
:102F10003346FDF769FA82468B463A4620463146EB
:102F20000F9BFDF764FA3A460F9BFDF7B9F90F4680
:102F30000A9000224FF0804350465946FDF751FA5F
:102F40000391009052465B4620463146FDF74FFA0A
:102F5000039B009AFDF7BDFA3B460A9AFDF741FA3A
:102F600022463346FDF73DFA0022134BFDF73CFAAB
:102F70000E46044601EB08510815002810DC4246B5
:102F800020463146FDF76BFCFEF71BFF042808BF07
:102F9000FEF798FF424620463146FDF760FC0446A6
:102FA00006980B4614B022462946BDE8F04DFDF7C1
:102FB0001EBA0000A40200000000F03F2DE9F0411D
:102FC00006460F46FDF796FC04000D4618BF01208B
:102FD000284320F00040C0F17F6000F1E040C00FC6
:102FE0000ED0301C18BF0120384320F00040C0F143
:102FF0007F6000F1E040C00F04BF0120FEF77AFFC0
:1030000020462946BDE8F08110B5044640F602008E
:10301000001B81B24FF08040FEF7C9FC10BD0000DC
:1030200010B50446A1B20248FEF7C1FC10BD000075
:103030000004004000B587B0012144F20400FDF710
:103040000DFF4FF40070ADF8180003208DF81A0042
:1030500018208DF81B0006A91D48FDF7E6FD4FF46A
:103060008060ADF8180004208DF81B0006A91848F0
:10307000FDF7DBFD25208DF8040003208DF8050009
:103080008DF8060001208DF8070001A8FDF790FEDD
:103090004FF4165002900020ADF80C00ADF80E0071
:1030A000ADF81000ADF814000C20ADF8120002A924
:1030B0000848FEF70FFE012240F225510548FEF7B1
:1030C000E4FD01210348FEF79DFD07B000BD0000AF
:1030D000000801400038014059C22EBDBA158FBF0B
:1030E000F20CAABF42EF893FCF98813F3CD98D3F78
:1030F000098A0ABFC394EDBF8D728F3E33942EBFF1
:10310000F6EBB1BF11CA90BF74599B3EF826ADBF14
:1031100078F7713F2D1ABC3F5EC77A3E95348BBF5E
:10312000CDA803BEB75A073F661CB23D474AD43DFF
:10313000830B34BFD887FA3EB64AAFC0454FFCBDBB
:10314000F9BA3F40183AFF3F000000000000F03F8E
:10315000000000000000F83F000000000000000038
:103160000000004003B8E23F000000000000000043
:1031700006D0CF43EBFD4C3E033333333333E33FD1
:10318000FFAB6FDBB66DDB3F4D268F515555D53FFD
:1031900001411DA96074D13F65DBC9934A86CD3FCB
:1031A000EF4E454A287ECA3F3E5555555555C53FB9
:1031B00093BDBE166CC166BF2CDE25AF6A56113FAB
:1031C000F16BD2C541BDBBBED0A4BE726937663EAD
:1031D0000000000000000000F8310008000000209E
:1031E00070000000D41E0008683200087000002043
:1031F00070060000E41E000800409C450000C84224
:1032000000000000000000000000000000000000BE
:10321000000000000000000000000000140000009A
:10322000000000000A0000000A0000000A00000080
:103230000000000000000000000001020304010281
:1032400003040607080902040608000000A24A0455
:103250000000000000000000010203040607080946
:08326000000000000000000066
:0400000508000131BD
:00000001FF
