:020000040800F2
:100000006004002045010008C30D0008BB0D000876
:10001000BF0D0008390C00081F1B0008000000007D
:10002000000000000000000000000000850F000834
:100030003D0C000800000000350E00089910000873
:100040005F0100085F0100085F0100085F01000810
:100050005F0100085F0100085F0100085F01000800
:100060005F0100085F0100085F0100085F010008F0
:100070005F0100085F0100085F0100085F010008E0
:100080005F0100085F0100085F0100085F010008D0
:100090005F0100085F0100085F0100085F010008C0
:1000A0005F0100085F0100085F0100085F010008B0
:1000B0003D130008D9130008211500085F0100084E
:1000C0005F0100085F0100085F0100085F01000890
:1000D0005F010008C91800085F0100085F010008FF
:1000E0005F0100085F0100085F0100085F01000870
:1000F0005F0100085F0100085F0100085F01000860
:100100005F0100085F0100085F0100085F0100084F
:100110005F0100085F0100085F0100085F0100083F
:100120005F0100085F0100085F0100085F0100082F
:10013000DFF80CD000F0D6FB004800476D1D00082A
:10014000600400200648804706480047FEE7FEE7B7
:10015000FEE7FEE7FEE7FEE7FEE7FEE7FEE7FEE777
:100160009D1000083101000840EA01039B0703D0FD
:1001700009E008C9121F08C0042AFAD203E011F8E6
:10018000013B00F8013B521EF9D27047F0B480EAFF
:100190000102D40F4200B2EB410F02D202460846E0
:1001A00011464A0042D0C30DDDB2C1F3C752AD1AA9
:1001B000202D35DAC1F3160141F4000204B1524298
:1001C000C5F1200602FA06F12A411044B3EBD05FD4
:1001D00023D0C4B1012DA0EBC35009DCF0BC4FF01B
:1001E000004202EAC352DBB200F5000000F0D8BAC8
:1001F000400000F1807000EBC350A0F1807040EA35
:10020000D170490009E0490841EAC071A0EBC35030
:1002100000F50000400800EBC350F0BC00F0B7BA96
:100220006142012202EB4101001BF6E7F0BC70477E
:1002300081F00041AAE780F00040A7E780EA0102D0
:1002400010B502F00043400022D04A001FD0010E3A
:1002500001EB1261C0F35600C2F3560240F40000F5
:1002600042F40002A0FB022000047F39140400D0F5
:10027000401C50EA124001D44000491EC2B20C0694
:1002800004EBD010401C4008802A02D003E000207C
:1002900010BD20F00100002900DA0020184310BD35
:1002A0002DE9FE4F804681EA0300C00F0C46009006
:1002B00021F0004123F00045B8EB0200A94105D22E
:1002C0004046214690461C460B46024623F000401D
:1002D000104347D0270DC7F30A00C3F30A51029019
:1002E000401A019040286BDAC3F3130040F4801BDE
:1002F0000098924620B10023D2EB030A63EB0B0B6C
:1003000001985946C0F14002504600F00FFA0646E7
:100310000D4650465946019A00F027FA10EB0800A6
:100320006141002487EA115284EAE7731A4340D0FE
:10033000009A62B3019A012A4FEA075215DC001BAA
:1003400061EB02014FF0004202EA0752CDE90042A0
:10035000001C41F5801132462B4600F05EFA03B0D6
:10036000BDE8F08F40462146F9E7001B61EB020132
:10037000001C41F5801300185B412018A2F50017FE
:1003800047EB030140EAD570B6196D4111E06D08E5
:100390004FEA360645EAC0754FEA0752001B61EB8B
:1003A0000201001C41F5801149084FEA3000001994
:1003B000514132462B4603B0BDE8F04F00F01EBA63
:1003C0000098012240000023D0EB020263EBE073AF
:1003D000009821464FEAE074B8EB000061EB04019D
:1003E000E9E783F000435BE781F0004158E72DE93E
:1003F000FE4F81EA030404F0004421F00041009420
:100400004FF0000B23F0004350EA01045ED052EAA3
:1004100003045BD0C3F30A54C1F30A552C44A4F27D
:10042000F3340194A0FB0254C1F3130141F4801191
:10043000C3F3130343F4801301FB024400FB034E98
:10044000840A970A44EA815447EA8357A4FB076861
:1004500002958D0A05FB07854FEA932C04FB0C548B
:100460002705029D4FEA065847EA1637B5EB0805FF
:100470006EEB070C870E920E47EA811742EA831251
:10048000A7FB0201B6EB0B0164EB00042B0D43EA62
:100490000C335E1844EB1C50DA465146E7FB020170
:1004A000C5F313044FEA0B3343EA14534FEA043203
:1004B000019C43EA0603A4F10C040294009CCDE9DC
:1004C00000B400F0AAF903B0BDE8F08F00200146A7
:1004D000F9E72DE9F04D81EA030404F0004B21F027
:1004E000004514464FF0000A23F0004150EA05028F
:1004F00020D054EA01021DD0C5F30A570246C5F3C5
:100500001303C1F31300C1F30A5640F4801543F4FA
:100510008013A7EB0608101BD64608F2FD3873EBD4
:10052000050002D308F1010801E092185B41B8F11F
:10053000000F03DA00200146BDE8F08D00204FF4E3
:100540008011064684460EE0171B73EB050705D3A2
:10055000121B63EB050306434CEA010C49084FEA02
:10056000300092185B4150EA0107EDD152EA0300D6
:1005700012D082EA040083EA0501084305D0101B6B
:10058000AB4106D20122002306E000224FF00043D7
:1005900002E06FF0010253101AEB06004CEB085119
:1005A00010EB0A0041EB0B01BDE8F04D00F026B95D
:1005B0000EB5C10F80EAE0700844CA07002140F27E
:1005C00033438DE80E000A460B4600F026F903B0CF
:1005D00000BD0EB540F2334102910021CDE900117A
:1005E0000A460B4600F019F903B000BD20F00040A8
:1005F000C10DC0F3160040F400007F2901DA00208D
:100600007047962903DCC1F19601C84070479639BE
:1006100088407047C1F30A5210B5C1F3130140F28C
:10062000FF3341F480119A4201DA002010BD40F2FC
:1006300033439A42A2F2334203DC524200F085F87F
:1006400010BD904010BD00F0004230F000400AD0D4
:10065000C10D01F56071C0F3160042EA0151C208F4
:1006600040071143704700200146704730B5041E13
:1006700071F1000404DB4FF00044404264EB0101DF
:10068000141E73F1000405DB1C464FF00043524278
:1006900063EB04038B4208BF824230BD30B5041EB9
:1006A00071F1000404DB4FF00044404264EB0101AF
:1006B000141E73F1000405DB1C464FF00043524248
:1006C00063EB0403994208BF904230BD01F0004340
:1006D00030B421F0004150EA010206D00A0DA2F523
:1006E0006072C1F31301002A02DC30BC00207047A5
:1006F000440F44EAC104C100E01830BC00EBC25012
:1007000000F045B8002801DBC0F10040002901DB02
:10071000C1F1004181427047002801DBC0F1004077
:10072000002901DBC1F1004188427047202A04DB27
:10073000203A00FA02F1002070479140C2F12003F4
:1007400020FA03F3194390407047202A04DB203A33
:1007500021FA02F00021704721FA02F3D040C2F1E1
:1007600020029140084319467047202A06DBCB1728
:10077000203A41FA02F043EAE07306E041FA02F35C
:10078000D040C2F120029140084319467047002929
:10079000A8BF7047401C490008BF20F00100704707
:1007A00010B4B0FA80FC00FA0CF050EA010404BF67
:1007B00010BC704749B1CCF1200421FA04F411FABD
:1007C0000CF118BF012121430843A3EB0C01CB1D01
:1007D0004FEA00614FEA102042BF002010BC704772
:1007E00000EBC35010440029A4BF10BC7047401C4C
:1007F000490008BF20F0010010BC704710B5141E5E
:1008000073F1000408DA401C41F1000192185B41C9
:100810001A4301D120F0010010BD2DE9F04D9246A0
:100820009B4611B1B1FA81F202E0B0FA80F22032B7
:100830009046FFF77BFF04460F4640EA0A0041EA74
:100840000B0153465A46084313D0114653EA0100A0
:1008500019D0C8F140025046FFF777FF05460E4613
:10086000504659464246FFF761FF084305D0012034
:1008700004E020463946BDE8F08D0020054346EAF5
:10088000E0762C4337430A986305E40AA0EB08009E
:100890000022FD0A44EA47540A3002D500200146EE
:1008A000E9E7010510196941DDE9084500196941C9
:1008B000BDE8F04DA2E770B521F0004303430CD032
:1008C000C1F30A550024D5EB040564EB0403D617E5
:1008D000AD1AB34102DB0020014670BD201841EB88
:1008E000025170BD064C074D06E0E06840F0010380
:1008F00094E8070098471034AC42F6D3FFF71CFC8D
:10090000402E0008602E00082DE9F04D00231A4605
:100910001B1A8A4103DB00200146BDE8F08DC1F3BC
:100920000A52C1F3130141F480154FF0000BD107B7
:1009300002D100186D41521E0027044640F2FF11FB
:10094000384601EB620A3E468046024600204FF4DC
:100950008011FFF7FAFEC2197141BB1846EB010086
:10096000B4EB030C75EB000C04D3E41A65EB000543
:1009700017460E46241908F101006D4180463428BF
:10098000E3DDF91946EB0600091BA84103D24FF03D
:10099000FF32134601E0002213461BEB070046EB33
:1009A0000A51BDE8F04DFFF729BF21B1826842F03E
:1009B0000102826003E0826822F0010282607047D7
:1009C00010B504461248844208D10121401500F0B8
:1009D0005FFA0021601500F05BFA17E00D488442D1
:1009E00008D10121001500F053FA0021201500F074
:1009F0004FFA0BE00848844208D10121C80300F0F7
:100A000047FA00214FF4004000F042FA10BD000008
:100A10000024014000280140003C01400146002024
:100A20008A6802F004020AB1012000E00020704749
:100A30000146C86C80B270470246002013680B4024
:100A40000BB1012000E000207047014600208A68B9
:100A500002F008020AB1012000E000207047000007
:100A600030B502460020002350680F4C20400D791D
:100A70000C6844EA05242043506090680B4C2040E9
:100A8000D1E902542C434D7944EA45042043906057
:100A9000D06A20F470000C7C641EE4B2234340EA68
:100AA0000350D06230BD0000FFFEF0FFFDF7F1FF04
:100AB000F0B504460D4600200021092D11DDE06847
:100AC000A5F10A0606EB4607072606FA07F1884352
:100AD000A5F10A0606EB460603FA06F10843E060B4
:100AE0000CE0206905EB4507072606FA07F1884365
:100AF00005EB450603FA06F108432061072A0FDAE1
:100B0000606B561E06EB86071F2606FA07F1884320
:100B1000561E06EB860605FA06F10843606322E0DE
:100B20000D2A0FDA206BD61F06EB86071F2606FA62
:100B300007F18843D61F06EB860605FA06F108433F
:100B4000206310E0E06AA2F10D0606EB86071F267F
:100B500006FA07F18843A2F10D0606EB860605FAB0
:100B600006F10843E062F0BD816841F00801816050
:100B7000704721B1826842F4A002826003E082687B
:100B800022F4A00282607047816841F00401816014
:100B90007047000000B587B001214FF4017000F0EC
:100BA00067F94FF4004000F047F90D20ADF804005C
:100BB00000208DF8070001A91C4800F040F8032030
:100BC000ADF8040000208DF8070001A9184800F0D6
:100BD00036F81848FFF7F4FE002002908DF80C005C
:100BE0008DF80D004FF46020049000200590012046
:100BF0008DF8180002A90F48FFF732FF01210D48B8
:100C0000FFF7D3FE0B48FFF7AFFF00BF0948FFF720
:100C10001CFF0028FAD10748FFF7B6FF00BF0548C0
:100C2000FFF7FCFE0028FAD107B000BD0008014024
:100C3000000C01400024014000BFFEE770472DE991
:100C4000F041024600250026002000230024002752
:100C500091F803C00CF00F0591F803C00CF0100CD4
:100C6000BCF1000F03D091F802C04CEA050591F8E1
:100C700000C0BCF1000F31D0146800202BE04FF011
:100C8000010C0CFA00F3B1F800C00CEA03069E4216
:100C900020D183004FF00F0C0CFA03F7BC4305FA88
:100CA00003FC4CEA040491F803C0BCF1280F06D100
:100CB0004FF0010C0CFA00FCC2F814C00AE091F8E5
:100CC00003C0BCF1480F05D14FF0010C0CFA00FC39
:100CD000C2F810C0401C0828D1D31460B1F800C07D
:100CE000BCF1FF0F34DD546800202EE000F1080C49
:100CF0004FF0010808FA0CF3B1F800C00CEA030643
:100D00009E4221D183004FF00F0C0CFA03F7BC4335
:100D100005FA03FC4CEA040491F803C0BCF1280F67
:100D200005D100F1080C08FA0CF8C2F8148091F80B
:100D300003C0BCF1480F07D100F1080C4FF00108C7
:100D400008FA0CF8C2F81080401C0828CED3546072
:100D5000BDE8F0810161704710B504460723012208
:100D600021460948FFF7A4FE01210748FFF701FFCC
:100D700000BF02210448FFF75FFE0028F9D00248B7
:100D8000FFF756FE10BD0000002401402DE9F041A0
:100D900007460C460025002608E03846FFF7DCFF32
:100DA0000544012000F07EFF701CC6B2A642F4DBB1
:100DB000B5FBF4F080B2BDE8F08100BFFEE700BFF4
:100DC000FEE7704770B5002100230F22C47804B3FA
:100DD000154C246804F4E064C4F5E064210AC1F110
:100DE0000403CA40447804FA03F184781440214390
:100DF00009010E4C0678A155047804F01F05012462
:100E0000AC4005786D11AD0005F1E025C5F8004155
:100E100009E0047804F01F050124AC40044D067875
:100E2000761145F8264070BD0CED00E000E400E0CE
:100E300080E100E07047000001460020034A50684E
:100E400020F440400843506070470000001002400A
:100E500029B1064AD2690243044BDA6104E0034A2D
:100E6000D2698243014BDA617047000000100240F2
:100E700029B1064A92690243044B9A6104E0034A8D
:100E800092698243014B9A61704700000010024052
:100E900029B1064AD2680243044BDA6004E0034AEF
:100EA000D2688243014BDA607047000000100240B4
:100EB00030B500210022002400232D4D6D6805F07F
:100EC0000C0121B1042905D0082923D105E0294DC1
:100ED000056022E0274D05601FE0254D6D6805F493
:100EE0007012234D6D6805F48034022505EB9242A3
:100EF0001CB9214D554305600BE01D4D6D6805F48F
:100F000000351DB11C4D5543056002E0194D554398
:100F1000056002E0174D056000BF00BF144D6D680D
:100F200005F0F0010909154D6B5C0568DD40456071
:100F30000F4D6D6805F4E061090A104D6B5C456862
:100F4000DD4085600A4D6D6805F46051C90A0B4D9E
:100F50006B5C4568DD40C560054D6D6805F440413A
:100F6000890B074D6B5CC568B5FBF3F5056130BDBA
:100F70000010024000127A0000093D001600002017
:100F800026000020704710B500F002F810BD0000E8
:100F90000CB50020019000903348006840F4803088
:100FA0003149086000BF3048006800F4003000900C
:100FB0000198401C0190009818B90198B0F5A06FF5
:100FC000F1D12948006800F4003010B101200090F0
:100FD00001E0002000900098012843D123480068D8
:100FE00040F01000214908600846006820F0030026
:100FF00008600846006840F0020008601A4840682F
:10100000194948600846406848600846406840F40E
:10101000806048600846406820F47C1048600846BC
:10102000406840F4E81048600846006840F080706E
:10103000086000BF0C48006800F000700028F9D07C
:101040000948406820F003000749486008464068A6
:1010500040F00200486000BF0348406800F00C0008
:101060000828F9D10CBD0000001002400020024009
:10107000042808D14FF0E021096941F004014FF044
:10108000E022116107E04FF0E021096921F004013D
:101090004FF0E022116170477047000010B513480F
:1010A000006840F001001149086008464068104996
:1010B00008400E494860084600680E4908400B4940
:1010C00008600846006820F48020086008464068F0
:1010D00020F4FE0048604FF41F008860FFF753FFC4
:1010E0004FF000600449086010BD0000001002408D
:1010F0000000FFF8FFFFF6FE08ED00E0F0B50C463B
:10110000154600220021068C4FF6FE773E400684ED
:10111000028B018C4FF60C7632407E1C06EA0316D9
:101120002E433243104EB0420ED0104EB0420BD080
:10113000B0F1804F08D00E4EB04205D00D4EB042F7
:1011400002D00D4EB04206D14FF6FD76314044F04C
:101150000106314305E04FF6F576314044F00106D3
:10116000314302830184F0BD002C01400034014072
:101170000004004000080040000C0040F0B50C46A0
:101180001546002200210026078C4FF6EF7C07EA67
:101190000C070784028B018C4FF6FF7707EA0416D1
:1011A00040F6FF473A404FF6FF7707EA03373A43E6
:1011B0004FF6FF7707EA05273A43114FB8420ED0A2
:1011C000104FB8420BD0B0F1804F08D00E4FB8424C
:1011D00005D00E4FB84202D00D4FB84206D14FF69F
:1011E000DF77394046F01007394305E04FF65F7767
:1011F000394044F01007394302830184F0BD0000F8
:10120000002C014000340140000400400008004070
:10121000000C0040F0B50C461546002200210026C7
:10122000078C4FF6FF6C07EA0C070784828B018C52
:101230004FF6FF7707EA04264FF60C773A404FF651
:10124000FF7707EA03172F433A43114FB8420ED0F6
:10125000104FB8420BD0B0F1804F08D00E4FB842BB
:1012600005D00E4FB84202D00D4FB84206D14FF60E
:10127000FF57394046F48077394305E04FF2FF5776
:10128000394044F48077394382830184F0BD000003
:10129000002C0140003401400004004000080040E0
:1012A000000C0040F0B50C46154600220021002637
:1012B000078C4EF6FF7C07EA0C070784828B018CB3
:1012C0004FF6FF7707EA043640F6FF473A404FF6FD
:1012D000FF7707EA05273A434FF6FF7707EA033718
:1012E0003A43114FB8420ED0104FB8420BD0B0F174
:1012F000804F08D00E4FB84205D00E4FB84202D0F2
:101300000D4FB84206D14DF6FF77394046F480576D
:10131000394305E047F6FF57394044F480573943D5
:1013200082830184F0BD0000002C014000340140A4
:101330000004004000080040000C004010B50121EE
:10134000880700F06DF918B10121880700F056F9FF
:1013500010BD000030B589B005460C460121084695
:10136000FFF776FD01210520FFF782FD0220ADF891
:10137000200018208DF8230003208DF8220008A9F2
:101380001448FFF75CFCADF81850ADF8144000208D
:10139000ADF81A00ADF8160005A94FF0804000F036
:1013A00041FA6020ADF804000120ADF806000020ED
:1013B000ADF80C0001A94FF0804000F0A3F908211E
:1013C000C80600F0F1F90121880700F01AF909B008
:1013D00030BD00000008014010B50121044800F0B4
:1013E0001FF918B10121024800F008F910BD0000F2
:1013F0000004004030B589B005460C4601210220AA
:10140000FFF726FD01210520FFF732FD8020ADF812
:10141000200018208DF8230003208DF8220008A951
:101420001348FFF70CFCADF81850ADF8144000203D
:10143000ADF81A00ADF8160005A90E4800F0F2F953
:101440006020ADF804000120ADF806000020ADF8E2
:101450000C0001A9074800F055F90821054800F0E3
:10146000A3F90121034800F0CCF809B030BD000019
:10147000000801400004004030B585B005460C4628
:1014800001210420FFF7E4FC01210820FFF7F0FC14
:101490004020ADF8100028208DF8130004A91D4845
:1014A000FFF7CDFB40211B48FFF754FCADF8085077
:1014B000ADF804400020ADF80A00ADF8060001A91F
:1014C000154800F0AFF90020144908804880012039
:1014D00088800020C88008810F4800F0B3F81E20E3
:1014E0008DF8000002208DF8010000208DF8020028
:1014F00001208DF803006846FFF764FC01220321F8
:10150000054800F0F5F80121034800F07AF805B02D
:1015100030BD0000000C01400008004048000020E1
:1015200010B50121304800F07BF8B8B12F48008891
:1015300064280ED12D4800884FF4FA7148432C4995
:1015400008600020294908800021274800F03BF965
:1015500004E026480088401C2449088002212248D3
:1015600000F05EF8D8B32348007804281BD11E4849
:1015700000F053F81D49098801EB4102C2EBC1118B
:101580001D4A126802EB81010844194908600020D5
:101590001649088017490870174908600021124849
:1015A00000F011F91BE013480078401C1149087045
:1015B0000D4800F032F80D49098801EB4102C2EBF9
:1015C000C11100EB81000C49096808440A49086010
:1015D0000020064908800021034800F0F4F80321A8
:1015E000014800F00BF810BD00080040000000208A
:1015F000040000200C00002008000020CA430282E2
:10160000704721B1028842F00102028004E00288A2
:101610004FF6FE731A40028070470146888E70476D
:1016200030B50246002000230024158A05EA010394
:10163000958905EA010413B10CB1012000E00020F6
:1016400030BD000070B505460C46244885420ED0DA
:10165000234885420BD0B5F1804F08D02148854200
:1016600005D02148854202D02048854200D100E0C3
:1016700000BF208850B92389A28861882846FFF7D7
:101680003DFDE188284600F0A0F825E020880428E8
:101690000AD12389A28861882846FFF76FFDE18877
:1016A000284600F09BF817E0208808280AD12389F3
:1016B000A28861882846FFF7ADFDE188284600F042
:1016C0009AF809E02389A28861882846FFF7EAFD95
:1016D000E188284600F098F870BD0000002C014019
:1016E000003401400004004000080040000C0040AD
:1016F0001AB183890B43838102E083898B43838101
:101700007047000070B5002400220023058C4FF6BE
:10171000EF7635400584028C8388048B48F6FF758C
:101720002C404FF6FF452C400D884FF6FF7606EA19
:1017300005252C434FF6DF752A400D8906EA05156D
:101740002A434D8806EA05152A43154DA84202D0C2
:10175000144DA8421DD14FF67F752A404D894FF692
:10176000FF7606EA05152A434FF6BF752A408D8895
:1017700006EA05152A434FF6FF352B404FF2FF7559
:101780002B408D8906EA85052B43CD8906EA850520
:101790002B4383800483CD880587028470BD0000BD
:1017A000002C0140003401400A460021018B4FF219
:1017B000FF7319404FF6FF7303EA022319430183B5
:1017C00070470187704781847047028B4FF6F3732F
:1017D0001A400283028B0A4302837047028B4FF246
:1017E000FF331A400283028B4FF6FF7303EA012393
:1017F0001A4302837047828B4FF6F3731A40828339
:10180000828B0A4382837047828B4FF2FF331A40E8
:101810008283828B4FF6FF7303EA01231A4382838C
:1018200070470000002202881D4B98420ED01D4BCD
:1018300098420BD0B0F1804F08D01B4B984205D096
:101840001A4B984202D01A4B984204D14FF68F732C
:101850001A404B881A43174B984207D0164B9842B0
:1018600004D04FF6FF431A40CB881A4302808B887E
:1018700083850B8803850A4B98420BD0094B98420D
:1018800008D00E4B984205D00D4B984202D00D4B1C
:10189000984201D10B7A03860123838270470000AE
:1018A000002C0140003401400004004000080040CA
:1018B000000C0040001000400014004000400140B7
:1018C000004401400048014010B540F2255126482F
:1018D00000F064F8002845D0234800F01BF9C4B29A
:1018E000232C02D1012021490870204800780128CA
:1018F00038D1232C36D0242C09D01D481D49097815
:1019000044541C480078401C1A4908702AE0002002
:1019100016490870184908801849087011E01448E1
:1019200016490978405C30381349098801EB810178
:1019300000EB41001049088010480078401C0F4916
:1019400008700E4800780B4909788842E7DB0A489E
:1019500000880B4908800020044908700649088067
:101960000449087010BD0000003801400E0000203E
:101970005200002010000020120000200F00002064
:101980001400002021B1828942F40052828104E0D7
:1019900082894DF6FF731A408281704770B5024606
:1019A000002400230025002040F66A16B14200D131
:1019B00000BFC1F3421501F01F03012606FA03F32D
:1019C000012D02D19689334006E0022D02D1168AFC
:1019D000334001E0968A33400C12012606FA04F4E3
:1019E0001688344013B10CB1012000E0002070BD16
:1019F000F0B50346002400260025002040F66A17B3
:101A0000B94200D100BF1846C1F3421401F01F06CD
:101A1000012707FA06F5012C01D10C3004E0022C55
:101A200001D1103000E014301AB107682F4307606D
:101A300002E00768AF430760F0BD00002DE9F04702
:101A400086B005460E460024A24600BFA1460027E8
:101A5000B08900B100BF2F462C8A4CF6FF700440BD
:101A6000F08804432C82AC894EF6F3100440B08811
:101A700031890843718908430443AC81AC8A4FF62D
:101A8000FF400440B0890443AC8201A8FFF710FA7C
:101A90001F48874202D1DDF810A001E0DDF80CA05C
:101AA000A88900F4004040B10AEBCA0000EB0A101C
:101AB00031684900B0FBF1F807E00AEBCA0000EB1F
:101AC0000A1031688900B0FBF1F86420B8FBF0F02F
:101AD00004012009642101FB1089A88900F4004059
:101AE00040B1322000EBC900B0FBF1F000F007007C
:101AF000044308E0322000EB09106421B0FBF1F050
:101B000000F00F0004432C8106B0BDE8F087000010
:101B10000038014001468888C0F30800704700BFC4
:101B2000FEE7490050EAC12018BF04204A0D18BF43
:101B300040F0010040F2FF72B2EB515F08BF40F08D
:101B40000200012808BF052070472DE9F0414F1E13
:101B500000EBC7010446D1E9000115461E4637F0E7
:101B600006020DD02A463346FEF741FC7F1E04EBE9
:101B7000C703D3E90023FEF793FB37F00602F1D148
:101B8000022F25D0042F13D0062F18BFBDE8F081F7
:101B90002A463346FEF72BFCD4E90A23FEF780FBE6
:101BA0002A463346FEF723FCD4E90823FEF778FBE8
:101BB0002A463346FEF71BFCD4E90623FEF770FBEA
:101BC0002A463346FEF713FCD4E90423FEF768FBEC
:101BD0002A463346FEF70BFCD4E90223FEF760FBEE
:101BE0002A463346FEF703FCD4E90023BDE8F04162
:101BF000FEF756BB0022134610460149FEF769BCAA
:101C00000000F03FFEF74CBB002213461046114681
:101C1000FEF75FBC40F2013200204FF0E041FEF7DA
:101C20004ABE0000024A00201107FEF744BE000031
:101C300001FDFFFF02E008C8121F08C1002AFAD107
:101C400070477047002001E001C1121F002AFBD13C
:101C50007047000001490860704700004400002000
:101C600010B56FF00400FFF703FA0A4800680A494C
:101C7000B0FBF1F0094908700846007800EB40011C
:101C8000C1EBC0104FF6FF7101EAC00004490880A3
:101C900010BD00002C00002000127A00400000203F
:101CA000420000200146114A12884A434FF0E023C7
:101CB0005A6100229A611A46126942F001021A61C1
:101CC00000BF4FF0E022106900F001021AB100F4E9
:101CD0008032002AF5D04FF0E022126922F0010292
:101CE0004FF0E0231A6100229A6170474200002001
:101CF0000146114A12784A434FF0E0235A6100220C
:101D00009A611A46126942F001021A6100BF4FF04F
:101D1000E022106900F001021AB100F48032002ABA
:101D2000F5D04FF0E022126922F001024FF0E023DB
:101D30001A6100229A6170474000002070B54FF48C
:101D4000576400250AE008480088844201DD0648FF
:101D500004880A20FFF7CCFF681C85B2B5F57A7FAE
:101D6000F1DB204670BD000014000020C0B03C2212
:101D7000FE4925A8FEF7F8F91422FC493C3120A8B9
:101D8000FEF7F2F9F94A503207CA1DAB07C3142215
:101D9000F6495C3118A8FEF7E7F9F5481790FFF708
:101DA0005FFFFEF7F7FE00F06BFF4721C720FFF74C
:101DB00021FB472144F61F60FFF7CCFA8F214FF437
:101DC000FA70FFF759FBEB4839900020EA490860A8
:101DD0003998FEF70BFC119000F096FF0A203B901B
:101DE0003A90E64834903498FEF700FC80B21190A7
:101DF00000F03CFF4FF4FA70FFF754FF22E203219A
:101E00000020FEF7C3FF0D90FEF7E3FB0022DC4B42
:101E1000CDE90E01FEF75DFBCDE91001FEF756FCA2
:101E2000389003210220FEF7B1FF0D90FEF7D1FBA1
:101E30000022D34BCDE90E01FEF74BFBCDE910019B
:101E4000FEF744FC379003210846FEF79FFF0D90F4
:101E5000FEF7BFFB0022CA4BCDE90E01FEF739FBAE
:101E6000CDE91001FEF732FC369003210820FEF781
:101E70008DFF3E9003210920FEF788FF3D90002052
:101E80003F903BE03F9800EB400025A901EB80002C
:101E900080680E903699FEF7D1F910903F9800EBCC
:101EA000400025A901EB800040680C903799FEF7AF
:101EB000C5F90E903F9800EB400025A951F820008D
:101EC0000C903899FEF7BAF90D900E99FEF75EF96D
:101ED0000F901099FEF75AF918A911903F9851F8F0
:101EE0002000014610901198FEF750F912AA3F9970
:101EF00042F821003F98401CC0B23F903F9805280F
:101F0000C0DB00203F9059E012A93F9851F8200013
:101F100080F000400390FEF796FB02460B46CDE9A9
:101F200004019848984900F09FF9CDE9080112A9E9
:101F30003F9851F820000390FEF785FB02460B46C0
:101F4000CDE904018F48904900F08EF9CDE90601F2
:101F5000DDE90823FEF7A4F9CDE90C0112A93F98A9
:101F600051F8200080F000400590FEF76CFB02461F
:101F70000B46CDE906018348834900F075F900223C
:101F80004FF08043CDE90801FEF731FACDE90A01AF
:101F9000DDE90C23FEF79DFA00227C4BCDE90E0112
:101FA000FEF722FACDE91001FEF790FB12AA3F9945
:101FB00042F821003F98401CC0B23F903F9805284E
:101FC000A2DB16980E9024980D900E99FEF736F924
:101FD000109015980C9023980B900C99FEF72EF901
:101FE0000E9014980A90229809900A99FEF726F903
:101FF0000C9013980890219807900899FEF71EF905
:102000000A9012980690209805900699FEF716F906
:1020100008901F9804903699FEF710F906901E98C4
:1020200002903799FEF70AF904901D9802903899AA
:10203000FEF704F903900499FEF7A8F805900699B5
:10204000FEF7A4F807900899FEF7A0F809900A99FE
:10205000FEF79CF80B900C99FEF798F80D900E99EE
:10206000FEF794F80F901099FEF790F811901799D9
:10207000FEF78CF835903598FEF7E5FA0022444BD0
:10208000CDE90E01FEF7B3F9CDE91001FEF71EFB15
:1020900035903A493598FEF7D1F80B90FEF7D3FA10
:1020A00000223C4BCDE90C01FEF713FA00223A4B1B
:1020B000CDE90E01FEF7F4F8CDE91001FEF706FBBD
:1020C000349036493498FEF727FB0AD2389936986F
:1020D000FEF722FB05D232483499FEF7A9F8349076
:1020E0000EE030493498FEF70DFB09D23699389846
:1020F000FEF712FB04D22A483499FEF799F834907F
:102100003E98B0F5426F05DB3D98B0F5426F01DBBC
:102110001A48349000213498FEF7F4FA03D20020D4
:1021200000F0A4FD10E01E493498FEF7F5FA04D241
:102130004FF47A7000F09AFD06E03498FEF756FAF4
:1021400080B2119000F092FDFFF7F8FD3C9000BFC7
:102150003B983A903C98C8383B9000200590FEF799
:1021600027FACDE908013A9801901DE0402D0008BA
:10217000211FABC00000C842040000200000FA4349
:1021800000408F409B91048B0ABF05400000F03F48
:10219000000059400000694000407F4000002F448B
:1021A00000007A4400009643FEF702FACDE90401EC
:1021B0003B98FEF7FDF9244A244BCDE90001FEF7D8
:1021C00016F9CDE90201DDE90423FEF70AF9CDE9AC
:1021D0000601DDE90823FEF763F81D4A1D4BCDE932
:1021E0000A01FEF704F9CDE90E013998FEF72BFA42
:1021F000CDE90C01DDE90E23FEF752F8CDE910011F
:10220000FEF764FA39903998FEF71DFA0022124B56
:10221000CDE91001FEF742FA02D2104839900BE0E6
:102220003998FEF710FA00220D4BCDE91001FEF7A8
:102230001DFA01D20B4839903998FEF7D7F9119061
:1022400000F062FDDBE500009A9999999999F13FB8
:10225000FCA9F1D24D62503F000089400000484483
:1022600000004940000048422DE9F04D16460F4657
:1022700094B01C4621F0004123F00042002814BF16
:102280004FF0010C4FF0000C0CEB470CFE4B0CEB2D
:1022900003054FEA630C65452BD3350018BF0125B4
:1022A00005EB44051D44F94B9D4222D3F84B52EAFD
:1022B000060C02D09F4205D148B914B0002019463F
:1022C000BDE8F08D002808BF4FF0000C01D04FF0A2
:1022D000010C0CEB470313F5001F0AD8002E14BFA6
:1022E0004FF0010C4FF0000C0CEB440313F5001FF2
:1022F00007D914B0324623463946BDE8F04DFFF702
:1023000081BCDFF890834FF0000A002FB8BF424530
:1023100023DAE14B9A42A8BF4FF0020A1DDADC4BE8
:1023200093421ADCDD4B03EB2253142B08DDC3F17F
:10233000340C26FA0CF303FA0CFCB4450DD108E07A
:102340005EB9C3F1140C22FA0CF303FA0CFC9445A9
:1023500003D103F00103C3F1020A51EA00031BD1C8
:10236000002C19DA002F18BFBAF1020F02D0BAF10F
:10237000010F07D00220FFF76DFC14B0BDE8F04D4F
:10238000FFF738BC0220FFF765FCFFF733FC14B001
:1023900081F00041BDE8F08D330070D1424525D178
:1023A00007F1804212F5801201BF00280020B849D1
:1023B00014B008BFBDE8F08DB548884207DC002C9A
:1023C000A1BF1846214614B0BDE8F08D07E0002CEF
:1023D000BFBF184684F0004114B0BDE8F08DB0498D
:1023E0007944D1E9000114B0BDE8F08DDFF8A0C256
:1023F00062452AD1002C24DA39B1414517D1002891
:1024000004BF002002461CD106E040B10220FFF7C5
:1024100021FCFFF7FFFB0A46394600F0D7BA9D4A78
:10242000394614B0002062F31E01BDE8F08D08DAD1
:1024300014B03B46BDE8F04D024600206146FEF771
:1024400048B814B03946BDE8F08D414517DAB4F10B
:10245000804F0CD0A4F10053B3F1FF530FD13B1EBA
:102460000DDB14B01946BDE8F04D00F0D9BB3B467A
:1024700014B00246BDE8F04D1946FDF7B8BF05009F
:1024800027F000433AD1E1B1414537D1002F06DDB5
:10249000002CA1BF0020414614B0BDE8F08D002FF4
:1024A00001DD002C1FDB002F16DA002C14DBBAF143
:1024B000010F4FF0000014BF76497A4914B0BDE80F
:1024C000F08DBAF1020F18BF002F0CD0BAF1010F36
:1024D00009D1002F07DA0BE0002FB8BF002C0DDA6E
:1024E000BAF1010F04D0002014B00146BDE8F08D10
:1024F00014B000204FF00041BDE8F08D4FF001080E
:1025000008EBE77CCDF814C05CEA0A0C0DD0DFF8CC
:1025100098C162457EDDDFF894C1654B624512DDEE
:102520008B420ADB002C18DB23E00120FFF792FB33
:1025300014B0BDE8F04DFFF767BB554A8A4202DC94
:10254000002C0ADC15E0994202DA002C11DA04E0D2
:102550004F4B994219DD002C0BDD0220FFF77AFB6F
:10256000FFF758FB4B4A14B061F31E021146BDE859
:10257000F08D0220FFF76EFBFFF754FB444A14B0C6
:1025800061F31E021146BDE8F08D00223946FDF7C9
:1025900028FF07460D466FF00102FEF78CF94FF059
:1025A0005532444BFDF720FF3A462B46FDF71FFFFF
:1025B0000022414BFDF718FF80468B463A462B46DA
:1025C00010461946FDF713FF42465B46FDF70FFF25
:1025D00088460E904FF0C042384B38462946FDF7EA
:1025E00006FF83460091364A344B41460E98FDF76C
:1025F000FEFE80460191334A334B38462946FDF7AB
:10260000F6FE4246019BFDF7ECFE0D4602460B46E8
:102610000C9000E011E058460099FDF741FE0027BC
:1026200088465A463846009BFDF7DBFE2B460C9A3F
:10263000FDF7DAFE024600F079B90020B1F5801FFF
:1026400007DA352228461946FEF735F905466FF0B8
:10265000340000EB2150A0F2FF300190C1F31300D1
:1026600040F07F6141F04051029118498842D8BF43
:102670004FF0000B35DD16498142C8BF4FF0010B0A
:102680002FDC4FF0000B25E0FFFF1F00FFFF0F00C6
:102690000000F03F0000F07F0000404301FCFFFF1E
:1026A000540A00000000F0FF0000E0410000F04389
:1026B000FFFFEF3F5555D53F0000E03F4715F73F7F
:1026C000FE822B6544DF5DF80BAE543E8E9803000E
:1026D0007AB60B000198401C01900298A0F580107A
:1026E0000290FF480299784400EBCB000991D0E9B1
:1026F000002328460B931292FDF773FE00910A9077
:1027000028460B9B129A0999FDF7CAFD02460B4613
:102710000020F449FDF7DDFECDE90C010B46024631
:1027200000990A98FDF763FE0690EF488846002757
:1027300078440299006810904FF0005040EA610020
:1027400000EB8B4000F5002102910B9B129A109830
:10275000FDF747FE2A46099BFDF746FE3A464346EB
:10276000FDF745FE0891129038464146029B109AAB
:10277000FDF73DFE009B0A9AFDF736FE089B129A74
:10278000FDF72FFEDDE90C23FDF731FE0B91069AD4
:102790001290434610461946FDF729FE05460246AB
:1027A000D2480B460A9106217844FFF7CEF90A9BDE
:1027B0002A460891029010461946FDF718FE089B1C
:1027C000029AFDF714FE054609914346384619461C
:1027D000069AFDF765FD0B9B129AFDF708FE2A4647
:1027E000099BFDF75DFDCDE908013A4643461046D9
:1027F0001946FDF7FCFD0A910022BD4B0090FDF744
:102800004FFDDDE90823FDF74BFD0D463A46B84B79
:102810003846FDF7E6FD0A9B009AFDF7E2FDDDE98B
:102820000823FDF7E1FDCDE908013A462B461046A5
:102830004146FDF7DCFD00910A90DDE908014346C1
:10284000069AFDF7D4FD069088462B463A460B992A
:102850001298FDF7CCFD4346069AFDF721FD804610
:102860000B4602460D9100990A98FDF719FD0020CC
:102870000F460546009B0A9AFDF7B3FD42460D9BA5
:10288000FDF7B2FD88460E904FF06042994B284606
:102890003946FDF7ACFD02910090974A954B4146B1
:1028A0000E98FDF7A4FD80460391944A944B284668
:1028B0003946FDF79CFD4246039BFDF7F1FC914A2A
:1028C0007A4402EBCB03D3E90023FDF7E9FC05468C
:1028D00007910198FDF76CFE0C9003912A46079B27
:1028E00002990098FDF7DCFC874A7A4402EBCB039F
:1028F000D3E9002393460193FDF7D2FC039B0C9A86
:10290000FDF7CEFC002788463846039B0C9AFDF75E
:1029100068FD5A46019BFDF764FD029B009AFDF796
:1029200060FD2A46079BFDF75FFD024600200690EA
:1029300005986C4DAAF10103184301D1734D06901F
:1029400000200B46049030462146FDF750FD82469C
:102950008B46234630461946049AFDF742FD3A4617
:102960004346FDF744FD52465B46FDF799FC06469B
:102970008A463A46434621460498FDF738FD044608
:102980000F4632465346FDF78BFC614A8B46914217
:1029900021DBABEB020353EA000210D122463B4697
:1029A000FDF71FFD804603915A4A5B4B3046514666
:1029B000FDF776FC4246039BFDF770FE27D202200E
:1029C000FFF748F9FFF726F90A46294614B062F3E3
:1029D0001E01BDE8F08D514B2BF000429A4216D3F8
:1029E0004F4A0BEB020353EA000208D122463B4652
:1029F000FDF7F7FC32465346FDF750FE07D802209C
:102A0000FFF728F9FFF70EF90A462946DEE72BF013
:102A100000404449444A01EB20514FF000088242F3
:102A200023DA481C4FF4801121FA00F058443F4A41
:102A3000C0F30A517A443E4BA1F2FF31CB4020EA69
:102A40000303C0F3130040F4801CC1F114001268AA
:102A50002CFA00F8BBF1000FB8BFC8F100082046FF
:102A60003946FDF7BEFC04460F4622463B4630463B
:102A70005146FDF715FC4FF0000B5A462D4B5846BA
:102A80000391FDF7B4FC00910A902B4A2B4B58465A
:102A90000399FDF7ACFC0491029022463B46584650
:102AA0000399FDF79EFC32465346FDF79DFC244AF0
:102AB000244BFDF79CFC049B029AFDF7F1FB0746B3
:102AC0008A46009B0A9AFDF7EBFB04460E46009BE4
:102AD0000A9AFDF786FC3A465346FDF785FC33E03B
:102AE000C60600000000F03F0407000034060000A6
:102AF0000000084009C7EE3FFD033ADCF5015B1416
:102B0000E02F3EBE0C050000D20400000000F0BF24
:102B100000009040FE822B654715973C00CC90400A
:102B200000346F3F01FCFFFF0000E03F00040000A5
:102B3000FFFF0F00432EE63F396CA80C615C20BEFE
:102B4000EF39FAFE422EE63F0746224633460F9102
:102B500010461946FDF74BFC834602462E488A462E
:102B60000B4605217844FEF7F0FF5A465346FDF721
:102B70003EFC22463346FDF737FC82468B463A46FA
:102B8000204631460F9BFDF732FC3A460F9BFDF77E
:102B900087FB0F460A9000224FF08043504659466B
:102BA000FDF71FFC0391009052465B4620463146DC
:102BB000FDF71DFC039B009AFDF78BFC3B460A9A30
:102BC000FDF70FFC22463346FDF70BFC0022134BAA
:102BD000FDF70AFC0E46044601EB085108150028D3
:102BE00010DC424620463146FDF765FEFEF799FFB0
:102BF000042808BFFFF716F8424620463146FDF785
:102C00005AFE044606980B4614B022462946BDE8F3
:102C1000F04DFDF7ECBB0000A80200000000F03F03
:102C20002DE9F04106460F46FDF76EFE04000D4605
:102C300018BF0120284320F00040C0F17F6000F160
:102C4000E040C00F0ED0301C18BF0120384320F0E8
:102C50000040C0F17F6000F1E040C00F04BF0120E0
:102C6000FEF7F8FF20462946BDE8F08110B504467E
:102C7000C4F5FA6081B24FF08040FEF7A2FD10BDAE
:102C800000B587B0012144F20400FEF7F1F84FF4DB
:102C90008060ADF8180004208DF81B0006A91848C4
:102CA000FDF7CDFF25208DF8040003208DF80500E9
:102CB0008DF8060001208DF8070001A8FEF782F8C4
:102CC0004FF4165002900020ADF80C00ADF80E0045
:102CD000ADF81000ADF814000C20ADF8120002A9F8
:102CE0000848FEF7ABFE012240F225510548FEF7E9
:102CF0007FFE01210348FEF745FE07B000BD00003E
:102D000000080140003801402DE9F0470446204604
:102D1000FDF75FFC0746074A074BFDF768FB0546D2
:102D2000FDF778FC1FFA80F949460448FEF749FD93
:102D3000BDE8F0879A9999999999C93F0004004094
:102D400059E2F43E11F4323FC9DD00C0AFA828C0FB
:102D5000E0AAA9BF28BB0B40994D8AC023B77FBE0C
:102D600059924B4035E3AFC0045568C0213370BF62
:102D7000904E00C051EB05408FA3C03F289CF7BF89
:102D8000473A403FF38B46BFEAA96DC07F1732C078
:102D90005DCC053FD60F493ED9288C3E14ECFEBFD2
:102DA000619C374019231B3E9E873D3FD60419BFC7
:102DB000000000000000F03F000000000000F83FAD
:102DC00000000000000000000000004003B8E23FE7
:102DD000000000000000000006D0CF43EBFD4C3E99
:102DE000033333333333E33FFFAB6FDBB66DDB3F8E
:102DF0004D268F515555D53F01411DA96074D13FD6
:102E000065DBC9934A86CD3FEF4E454A287ECA3FCF
:102E10003E5555555555C53F93BDBE166CC166BF51
:102E20002CDE25AF6A56113FF16BD2C541BDBBBE4A
:102E3000D0A4BE726937663E0000000000000000AA
:102E4000602E00080000002048000000341C00082C
:102E5000A82E00084800002018040000441C0008A8
:102E60000000000000000000000000000000000062
:102E70000000000000000000000001020304010245
:102E800003040607080902040608000000A24A0419
:102E9000000000000000000001020304060708090A
:082EA00000000000000000002A
:0400000508000131BD
:00000001FF
