:020000040800F2
:100000006804002045010008BF0D0008B70D000876
:10001000BB0D0008390C0008531800080000000050
:10002000000000000000000000000000810F000838
:100030003D0C000800000000310E0008951000087B
:100040005F0100085F0100085F0100085F01000810
:100050005F0100085F0100085F0100085F01000800
:100060005F0100085F0100085F0100085F010008F0
:100070005F0100085F0100085F0100085F010008E0
:100080005F0100085F0100085F0100085F010008D0
:100090005F0100085F0100085F0100085F010008C0
:1000A0005F010008591100085F0100085F010008A6
:1000B00025120008C1120008611300085F01000842
:1000C0005F0100085F0100085F0100085F01000890
:1000D0005F010008FD1500085F0100085F010008CE
:1000E0005F0100085F0100085F0100085F01000870
:1000F0005F0100085F0100085F0100085F01000860
:100100005F0100085F0100085F0100085F0100084F
:100110005F0100085F0100085F0100085F0100083F
:100120005F0100085F0100085F0100085F0100082F
:10013000DFF80CD000F0D6FB00480047A11A0008F9
:10014000680400200648804706480047FEE7FEE7AF
:10015000FEE7FEE7FEE7FEE7FEE7FEE7FEE7FEE777
:10016000991000083101000840EA01039B0703D001
:1001700009E008C9121F08C0042AFAD203E011F8E6
:10018000013B00F8013B521EF9D27047F0B480EAFF
:100190000102D40F4200B2EB410F02D202460846E0
:1001A00011464A0042D0C30DDDB2C1F3C752AD1AA9
:1001B000202D35DAC1F3160141F4000204B1524298
:1001C000C5F1200602FA06F12A411044B3EBD05FD4
:1001D00023D0C4B1012DA0EBC35009DCF0BC4FF01B
:1001E000004202EAC352DBB200F5000000F0D8BAC8
:1001F000400000F1807000EBC350A0F1807040EA35
:10020000D170490009E0490841EAC071A0EBC35030
:1002100000F50000400800EBC350F0BC00F0B7BA96
:100220006142012202EB4101001BF6E7F0BC70477E
:1002300081F00041AAE780F00040A7E780EA0102D0
:1002400010B502F00043400022D04A001FD0010E3A
:1002500001EB1261C0F35600C2F3560240F40000F5
:1002600042F40002A0FB022000047F39140400D0F5
:10027000401C50EA124001D44000491EC2B20C0694
:1002800004EBD010401C4008802A02D003E000207C
:1002900010BD20F00100002900DA0020184310BD35
:1002A0002DE9FE4F804681EA0300C00F0C46009006
:1002B00021F0004123F00045B8EB0200A94105D22E
:1002C0004046214690461C460B46024623F000401D
:1002D000104347D0270DC7F30A00C3F30A51029019
:1002E000401A019040286BDAC3F3130040F4801BDE
:1002F0000098924620B10023D2EB030A63EB0B0B6C
:1003000001985946C0F14002504600F00FFA0646E7
:100310000D4650465946019A00F027FA10EB0800A6
:100320006141002487EA115284EAE7731A4340D0FE
:10033000009A62B3019A012A4FEA075215DC001BAA
:1003400061EB02014FF0004202EA0752CDE90042A0
:10035000001C41F5801132462B4600F05EFA03B0D6
:10036000BDE8F08F40462146F9E7001B61EB020132
:10037000001C41F5801300185B412018A2F50017FE
:1003800047EB030140EAD570B6196D4111E06D08E5
:100390004FEA360645EAC0754FEA0752001B61EB8B
:1003A0000201001C41F5801149084FEA3000001994
:1003B000514132462B4603B0BDE8F04F00F01EBA63
:1003C0000098012240000023D0EB020263EBE073AF
:1003D000009821464FEAE074B8EB000061EB04019D
:1003E000E9E783F000435BE781F0004158E72DE93E
:1003F000FE4F81EA030404F0004421F00041009420
:100400004FF0000B23F0004350EA01045ED052EAA3
:1004100003045BD0C3F30A54C1F30A552C44A4F27D
:10042000F3340194A0FB0254C1F3130141F4801191
:10043000C3F3130343F4801301FB024400FB034E98
:10044000840A970A44EA815447EA8357A4FB076861
:1004500002958D0A05FB07854FEA932C04FB0C548B
:100460002705029D4FEA065847EA1637B5EB0805FF
:100470006EEB070C870E920E47EA811742EA831251
:10048000A7FB0201B6EB0B0164EB00042B0D43EA62
:100490000C335E1844EB1C50DA465146E7FB020170
:1004A000C5F313044FEA0B3343EA14534FEA043203
:1004B000019C43EA0603A4F10C040294009CCDE9DC
:1004C00000B400F0AAF903B0BDE8F08F00200146A7
:1004D000F9E72DE9F04D81EA030404F0004B21F027
:1004E000004514464FF0000A23F0004150EA05028F
:1004F00020D054EA01021DD0C5F30A570246C5F3C5
:100500001303C1F31300C1F30A5640F4801543F4FA
:100510008013A7EB0608101BD64608F2FD3873EBD4
:10052000050002D308F1010801E092185B41B8F11F
:10053000000F03DA00200146BDE8F08D00204FF4E3
:100540008011064684460EE0171B73EB050705D3A2
:10055000121B63EB050306434CEA010C49084FEA02
:10056000300092185B4150EA0107EDD152EA0300D6
:1005700012D082EA040083EA0501084305D0101B6B
:10058000AB4106D20122002306E000224FF00043D7
:1005900002E06FF0010253101AEB06004CEB085119
:1005A00010EB0A0041EB0B01BDE8F04D00F026B95D
:1005B0000EB5C10F80EAE0700844CA07002140F27E
:1005C00033438DE80E000A460B4600F026F903B0CF
:1005D00000BD0EB540F2334102910021CDE900117A
:1005E0000A460B4600F019F903B000BD20F00040A8
:1005F000C10DC0F3160040F400007F2901DA00208D
:100600007047962903DCC1F19601C84070479639BE
:1006100088407047C1F30A5210B5C1F3130140F28C
:10062000FF3341F480119A4201DA002010BD40F2FC
:1006300033439A42A2F2334203DC524200F085F87F
:1006400010BD904010BD00F0004230F000400AD0D4
:10065000C10D01F56071C0F3160042EA0151C208F4
:1006600040071143704700200146704730B5041E13
:1006700071F1000404DB4FF00044404264EB0101DF
:10068000141E73F1000405DB1C464FF00043524278
:1006900063EB04038B4208BF824230BD30B5041EB9
:1006A00071F1000404DB4FF00044404264EB0101AF
:1006B000141E73F1000405DB1C464FF00043524248
:1006C00063EB0403994208BF904230BD01F0004340
:1006D00030B421F0004150EA010206D00A0DA2F523
:1006E0006072C1F31301002A02DC30BC00207047A5
:1006F000440F44EAC104C100E01830BC00EBC25012
:1007000000F045B8002801DBC0F10040002901DB02
:10071000C1F1004181427047002801DBC0F1004077
:10072000002901DBC1F1004188427047202A04DB27
:10073000203A00FA02F1002070479140C2F12003F4
:1007400020FA03F3194390407047202A04DB203A33
:1007500021FA02F00021704721FA02F3D040C2F1E1
:1007600020029140084319467047202A06DBCB1728
:10077000203A41FA02F043EAE07306E041FA02F35C
:10078000D040C2F120029140084319467047002929
:10079000A8BF7047401C490008BF20F00100704707
:1007A00010B4B0FA80FC00FA0CF050EA010404BF67
:1007B00010BC704749B1CCF1200421FA04F411FABD
:1007C0000CF118BF012121430843A3EB0C01CB1D01
:1007D0004FEA00614FEA102042BF002010BC704772
:1007E00000EBC35010440029A4BF10BC7047401C4C
:1007F000490008BF20F0010010BC704710B5141E5E
:1008000073F1000408DA401C41F1000192185B41C9
:100810001A4301D120F0010010BD2DE9F04D9246A0
:100820009B4611B1B1FA81F202E0B0FA80F22032B7
:100830009046FFF77BFF04460F4640EA0A0041EA74
:100840000B0153465A46084313D0114653EA0100A0
:1008500019D0C8F140025046FFF777FF05460E4613
:10086000504659464246FFF761FF084305D0012034
:1008700004E020463946BDE8F08D0020054346EAF5
:10088000E0762C4337430A986305E40AA0EB08009E
:100890000022FD0A44EA47540A3002D500200146EE
:1008A000E9E7010510196941DDE9084500196941C9
:1008B000BDE8F04DA2E770B521F0004303430CD032
:1008C000C1F30A550024D5EB040564EB0403D617E5
:1008D000AD1AB34102DB0020014670BD201841EB88
:1008E000025170BD064C074D06E0E06840F0010380
:1008F00094E8070098471034AC42F6D3FFF71CFC8D
:10090000F8290008182A00082DE9F04D00231A469E
:100910001B1A8A4103DB00200146BDE8F08DC1F3BC
:100920000A52C1F3130141F480154FF0000BD107B7
:1009300002D100186D41521E0027044640F2FF11FB
:10094000384601EB620A3E468046024600204FF4DC
:100950008011FFF7FAFEC2197141BB1846EB010086
:10096000B4EB030C75EB000C04D3E41A65EB000543
:1009700017460E46241908F101006D4180463428BF
:10098000E3DDF91946EB0600091BA84103D24FF03D
:10099000FF32134601E0002213461BEB070046EB33
:1009A0000A51BDE8F04DFFF729BF21B1826842F03E
:1009B0000102826003E0826822F0010282607047D7
:1009C00010B504461248844208D10121401500F0B8
:1009D0005DFA0021601500F059FA17E00D488442D5
:1009E00008D10121001500F051FA0021201500F076
:1009F0004DFA0BE00848844208D10121C80300F0F9
:100A000045FA00214FF4004000F040FA10BD00000C
:100A10000024014000280140003C01400146002024
:100A20008A6802F004020AB1012000E00020704749
:100A30000146C86C80B270470246002013680B4024
:100A40000BB1012000E000207047014600208A68B9
:100A500002F008020AB1012000E000207047000007
:100A600030B502460020002350680F4C20400D791D
:100A70000C6844EA05242043506090680B4C2040E9
:100A8000D1E902542C434D7944EA45042043906057
:100A9000D06A20F470000C7C641EE4B2234340EA68
:100AA0000350D06230BD0000FFFEF0FFFDF7F1FF04
:100AB000F0B504460D4600200021092D11DDE06847
:100AC000A5F10A0606EB4607072606FA07F1884352
:100AD000A5F10A0606EB460603FA06F10843E060B4
:100AE0000CE0206905EB4507072606FA07F1884365
:100AF00005EB450603FA06F108432061072A0FDAE1
:100B0000606B561E06EB86071F2606FA07F1884320
:100B1000561E06EB860605FA06F10843606322E0DE
:100B20000D2A0FDA206BD61F06EB86071F2606FA62
:100B300007F18843D61F06EB860605FA06F108433F
:100B4000206310E0E06AA2F10D0606EB86071F267F
:100B500006FA07F18843A2F10D0606EB860605FAB0
:100B600006F10843E062F0BD816841F00801816050
:100B7000704721B1826842F4A002826003E082687B
:100B800022F4A00282607047816841F00401816014
:100B90007047000000B587B001214FF4017000F0EC
:100BA00065F94FF4004000F045F90D20ADF8040060
:100BB00000208DF8070001A91C4800F040F8032030
:100BC000ADF8040000208DF8070001A9184800F0D6
:100BD00036F81848FFF7F4FE002002908DF80C005C
:100BE0008DF80D004FF46020049000200590012046
:100BF0008DF8180002A90F48FFF732FF01210D48B8
:100C0000FFF7D3FE0B48FFF7AFFF00BF0948FFF720
:100C10001CFF0028FAD10748FFF7B6FF00BF0548C0
:100C2000FFF7FCFE0028FAD107B000BD0008014024
:100C3000000C01400024014000BFFEE770472DE991
:100C4000F041024600250026002000230024002752
:100C500091F803C00CF00F0591F803C00CF0100CD4
:100C6000BCF1000F03D091F802C04CEA050591F8E1
:100C700000C0BCF1000F31D0146800202BE04FF011
:100C8000010C0CFA00F3B1F800C00CEA03069E4216
:100C900020D183004FF00F0C0CFA03F7BC4305FA88
:100CA00003FC4CEA040491F803C0BCF1280F06D100
:100CB0004FF0010C0CFA00FCC2F814C00AE091F8E5
:100CC00003C0BCF1480F05D14FF0010C0CFA00FC39
:100CD000C2F810C0401C0828D1D31460B1F800C07D
:100CE000BCF1FF0F34DD546800202EE000F1080C49
:100CF0004FF0010808FA0CF3B1F800C00CEA030643
:100D00009E4221D183004FF00F0C0CFA03F7BC4335
:100D100005FA03FC4CEA040491F803C0BCF1280F67
:100D200005D100F1080C08FA0CF8C2F8148091F80B
:100D300003C0BCF1480F07D100F1080C4FF00108C7
:100D400008FA0CF8C2F81080401C0828CED3546072
:100D5000BDE8F08110B50446072301222146094869
:100D6000FFF7A6FE01210748FFF703FF00BF02219E
:100D70000448FFF761FE0028F9D00248FFF758FE4B
:100D800010BD0000002401402DE9F04107460C464B
:100D90000025002608E03846FFF7DCFF0544012067
:100DA00000F01AFE701CC6B2A642F4DBB5FBF4F0EC
:100DB00080B2BDE8F08100BFFEE700BFFEE77047EC
:100DC00070B5002100230F22C47804B3154C2468A9
:100DD00004F4E064C4F5E064210AC1F10403CA40EC
:100DE000447804FA03F184781440214309010E4C3D
:100DF0000678A155047804F01F050124AC4005785D
:100E00006D11AD0005F1E025C5F8004109E0047859
:100E100004F01F050124AC40044D0678761145F816
:100E2000264070BD0CED00E000E400E080E100E051
:100E30007047000001460020034A506820F44040FB
:100E400008435060704700000010024029B1064A74
:100E5000D2690243044BDA6104E0034AD269824357
:100E6000014BDA61704700000010024029B1064AC8
:100E700092690243044B9A6104E0034A92698243F7
:100E8000014B9A61704700000010024029B1064AE8
:100E9000D2680243044BDA6004E0034AD26882431A
:100EA000014BDA60704700000010024030B50021AD
:100EB0000022002400232D4D6D6805F00C0121B1A6
:100EC000042905D0082923D105E0294D056022E039
:100ED000274D05601FE0254D6D6805F47012234D08
:100EE0006D6805F48034022505EB92421CB9214D52
:100EF000554305600BE01D4D6D6805F400351DB1CF
:100F00001C4D5543056002E0194D5543056002E054
:100F1000174D056000BF00BF144D6D6805F0F0016E
:100F20000909154D6B5C0568DD4045600F4D6D6826
:100F300005F4E061090A104D6B5C4568DD40856091
:100F40000A4D6D6805F46051C90A0B4D6B5C45682C
:100F5000DD40C560054D6D6805F44041890B074DC6
:100F60006B5CC568B5FBF3F5056130BD0010024050
:100F700000127A0000093D002C0000203C000020F7
:100F8000704710B500F002F810BD00000CB500204D
:100F9000019000903348006840F480303149086087
:100FA00000BF3048006800F4003000900198401CF9
:100FB0000190009818B90198B0F5A06FF1D12948B7
:100FC000006800F4003010B10120009001E0002022
:100FD00000900098012843D12348006840F0100099
:100FE000214908600846006820F0030008600846B0
:100FF000006840F0020008601A48406819494860DB
:101000000846406848600846406840F48060486090
:101010000846406820F47C1048600846406840F468
:10102000E81048600846006840F08070086000BF23
:101030000C48006800F000700028F9D009484068AA
:1010400020F00300074948600846406840F002006D
:10105000486000BF0348406800F00C000828F9D140
:101060000CBD00000010024000200240042808D1FE
:101070004FF0E021096941F004014FF0E0221161D5
:1010800007E04FF0E021096921F004014FF0E02270
:10109000116170477047000010B51348006840F0B8
:1010A00001001149086008464068104908400E498F
:1010B0004860084600680E4908400B490860084629
:1010C000006820F4802008600846406820F4FE0094
:1010D00048604FF41F008860FFF753FF4FF0006037
:1010E0000449086010BD0000001002400000FFF835
:1010F000FFFFF6FE08ED00E07FB505460C46012136
:10110000C802FFF7B3FEADF80850ADF80440002068
:10111000ADF80A00ADF8060001A90E4800F01CFA6F
:10112000012211460B4800F0AAF919208DF80000A1
:1011300000208DF8010003208DF8020001208DF8B9
:1011400003006846FFF73CFE0121024800F077F9F2
:101150007FBD0000002C01402DE9F047012125480A
:1011600000F07CF9002842D00121224800F064F907
:101170002148006821490860214800681E4908602C
:1011800020480088A0F516701D49086008460068D0
:10119000FFF70EFA064600221B4BFFF728F904461C
:1011A00000221A4BFFF77CF88046FFF78FFA1849A8
:1011B000086008460068FFF746FA04460022154B0F
:1011C000FFF76CFA03D21448114908600CE010488C
:1011D0000068FFF738FA04460022104BFFF746FA82
:1011E00002D20F480A4908605C2001F069FBBDE8A3
:1011F000F0870000002C0140200000202400002087
:101200001C000020000000200000E03F00006940BA
:1012100028000020008066400000344300C0624087
:101220000000164310B50121880700F017F918B126
:101230000121880700F000F910BD000030B589B029
:1012400005460C4601210846FFF700FE0121052056
:10125000FFF70CFE0220ADF8200018208DF82300C7
:1012600003208DF8220008A91448FFF7E8FCADF828
:101270001850ADF814400020ADF81A00ADF8160073
:1012800005A94FF0804000F067F96020ADF8040038
:101290000120ADF806000020ADF80C0001A94FF0C8
:1012A000804000F0F5F80821C80600F043F901215C
:1012B000880700F0C4F809B030BD00000008014004
:1012C00010B50121044800F0C9F818B10121024805
:1012D00000F0B2F810BD00000004004030B589B045
:1012E00005460C4601210220FFF7B0FD0121052033
:1012F000FFF7BCFD8020ADF8200018208DF82300FA
:1013000003208DF8220008A91348FFF798FCADF8D8
:101310001850ADF814400020ADF81A00ADF81600D2
:1013200005A90E4800F018F96020ADF8040001206E
:10133000ADF806000020ADF80C0001A9074800F048
:10134000A7F80821054800F0F5F80121034800F04E
:1013500076F809B030BD00000008014000040040EC
:1013600010B501212F4800F079F8B8B12E48008857
:1013700064280ED12C4800884CF2503148432B4948
:1013800008600020284908800021264800F0E1F884
:1013900004E025480088401C234908800221214898
:1013A00000F05CF8C8B32248007804281AD11D4820
:1013B00000F051F81C49098840F6354251431D4A56
:1013C000126802EB01110844184908600020164910
:1013D000088017490870174908600021114800F07B
:1013E000B8F81AE012480078401C114908700D48FE
:1013F00000F031F80C49098840F63542514300EBC2
:1014000001100C49096808440A490860002006498F
:1014100008800021034800F09CF80321014800F0F7
:101420000BF810BD00080040040000200800002058
:10143000100000200C000020CA430282704721B136
:10144000028842F00102028004E002884FF6FE7337
:101450001A40028070470146888E704730B50246B8
:10146000002000230024158A05EA0103958905EA76
:10147000010413B10CB1012000E0002030BD1AB10D
:1014800083890B43838102E083898B438381704787
:1014900070B5002400220023058C4FF6EF7635400E
:1014A0000584028C8388048B48F6FF752C404FF628
:1014B000FF452C400D884FF6FF7606EA05252C43A4
:1014C0004FF6DF752A400D8906EA05152A434D8837
:1014D00006EA05152A43154DA84202D0144DA8422C
:1014E0001DD14FF67F752A404D894FF6FF7606EAEB
:1014F00005152A434FF6BF752A408D8806EA051563
:101500002A434FF6FF352B404FF2FF752B408D8954
:1015100006EA85052B43CD8906EA85052B438380A2
:101520000483CD880587028470BD0000002C014033
:10153000003401400A460021018B4FF2FF7319402D
:101540004FF6FF7303EA02231943018370470187B3
:101550007047818470470000002202881D4B98422A
:101560000ED01D4B98420BD0B0F1804F08D01B4BD2
:10157000984205D01A4B984202D01A4B984204D197
:101580004FF68F731A404B881A43174B984207D077
:10159000164B984204D04FF6FF431A40CB881A43AB
:1015A00002808B8883850B8803850A4B98420BD079
:1015B000094B984208D00E4B984205D00D4B9842EB
:1015C00002D00D4B984201D10B7A0386012383820E
:1015D00070470000002C014000340140000400402E
:1015E00000080040000C00400010004000140040C3
:1015F00000400140004401400048014010B540F265
:101600002551264800F064F8002845D0234800F012
:101610001BF9C4B2232C02D10120214908702048B3
:101620000078012838D1232C36D0242C09D01D482D
:101630001D49097844541C480078401C1A49087018
:101640002AE00020164908701849088018490870D7
:1016500011E0144816490978405C3038134909886C
:1016600001EB810100EB410010490880104800782F
:10167000401C0F4908700E4800780B4909788842D1
:10168000E7DB0A4800880B490880002004490870FD
:10169000064908800449087010BD00000038014068
:1016A000120000205C000020140000201600002022
:1016B000130000201800002021B1828942F400525A
:1016C000828104E082894DF6FF731A40828170475F
:1016D00070B50246002400230025002040F66A165B
:1016E000B14200D100BFC1F3421501F01F03012632
:1016F00006FA03F3012D02D19689334006E0022D4C
:1017000002D1168A334001E0968A33400C1201263A
:1017100006FA04F41688344013B10CB1012000E03D
:10172000002070BDF0B503460024002600250020EF
:1017300040F66A17B94200D100BF1846C1F34214FF
:1017400001F01F06012707FA06F5012C01D10C3024
:1017500004E0022C01D1103000E014301AB1076807
:101760002F43076002E00768AF430760F0BD000049
:101770002DE9F04786B005460E460024A24600BF7C
:10178000A1460027B08900B100BF2F462C8A4CF635
:10179000FF700440F08804432C82AC894EF6F310AD
:1017A0000440B08831890843718908430443AC81FF
:1017B000AC8A4FF6FF400440B0890443AC8201A8D4
:1017C000FFF774FB1F48874202D1DDF810A001E04B
:1017D000DDF80CA0A88900F4004040B10AEBCA0073
:1017E00000EB0A1031684900B0FBF1F807E00AEBA2
:1017F000CA0000EB0A1031688900B0FBF1F86420E0
:10180000B8FBF0F004012009642101FB1089A889CC
:1018100000F4004040B1322000EBC900B0FBF1F011
:1018200000F00700044308E0322000EB09106421B7
:10183000B0FBF1F000F00F0004432C8106B0BDE8CE
:10184000F08700000038014001468888C0F3080096
:10185000704700BFFEE7490050EAC12018BF0420CE
:101860004A0D18BF40F0010040F2FF72B2EB515F29
:1018700008BF40F00200012808BF052070472DE98D
:10188000F0414F1E00EBC7010446D1E900011546A7
:101890001E4637F006020DD02A463346FEF7A7FD56
:1018A0007F1E04EBC703D3E90023FEF7F9FC37F0F2
:1018B0000602F1D1022F25D0042F13D0062F18BF16
:1018C000BDE8F0812A463346FEF791FDD4E90A23AC
:1018D000FEF7E6FC2A463346FEF789FDD4E90823E5
:1018E000FEF7DEFC2A463346FEF781FDD4E90623E7
:1018F000FEF7D6FC2A463346FEF779FDD4E90423E9
:10190000FEF7CEFC2A463346FEF771FDD4E90223EA
:10191000FEF7C6FC2A463346FEF769FDD4E90023EC
:10192000BDE8F041FEF7BCBC002213461046014959
:10193000FEF7CFBD0000F03FFEF7B2BC0022134619
:1019400010461146FEF7C5BD40F2013200204FF0AF
:10195000E041FEF7B0BF0000024A00201107FEF789
:10196000AABF000001FDFFFF02E008C8121F08C166
:10197000002AFAD170477047002001E001C1121F10
:10198000002AFBD170470000014908607047000041
:101990005800002010B56FF00400FFF767FB0A48FD
:1019A00000680A49B0FBF1F0094908700846007860
:1019B00000EB4001C1EBC0104FF6FF7101EAC0001F
:1019C0000449088010BD00004000002000127A0089
:1019D00054000020560000200146114A12884A4354
:1019E0004FF0E0235A6100229A611A46126942F0D0
:1019F00001021A6100BF4FF0E022106900F00102FD
:101A00001AB100F48032002AF5D04FF0E0221269BA
:101A100022F001024FF0E0231A6100229A61704720
:101A2000560000200146114A12784A434FF0E02345
:101A30005A6100229A611A46126942F001021A6143
:101A400000BF4FF0E022106900F001021AB100F46B
:101A50008032002AF5D04FF0E022126922F0010214
:101A60004FF0E0231A6100229A6170475400002071
:101A700070B54FF4576400250AE008480088844296
:101A800001DD064804886420FFF7CCFF681C85B29E
:101A9000B5F57A7FF1DB204670BD0000180000200C
:101AA000B2B03C22CE4921A8FEF75EFB1422CC49FD
:101AB0003C311CA8FEF758FBC94A5032D2E900104D
:101AC0009268CDE91A0219911422C5495C3114A813
:101AD000FEF74AFBC3481390FFF75CFFFFF75AF885
:101AE00000F0AAFE4721C720FFF7F8FB472144F684
:101AF0001F60FFF7A3FB40F2CF210920FFF7FCFA9C
:101B00006CE1FFF7B5FFB849088003210020FFF71B
:101B10003BF90B90FEF75DFD0022B44BCDE90C01C3
:101B2000FEF7D7FC0746FEF7D1FD0646032102204B
:101B3000FFF72AF90B90FEF74CFD0022AB4BCDE9E5
:101B40000C01FEF7C6FC0746FEF7C0FD83460321E5
:101B50000846FFF719F90B90FEF73BFD0022A34B57
:101B6000CDE90C01FEF7B5FC0746FEF7AFFD814657
:101B700003210820FFF708F9824603210920FFF717
:101B800003F9054600242FE004EB440121AA02EBEF
:101B9000810188684946FEF751FB04EB440121AA04
:101BA00002EB81010D9048685946FEF747FB04EBB4
:101BB000440121AA0C9052F821003146FEF73EFB69
:101BC0000B900C99FEF7E2FA80460D99FEF7DEFACB
:101BD000074614A850F824103846FEF7D7FA0EA985
:101BE00041F82400601CC4B2052CCDDB00244FE07A
:101BF0000EA850F8240080F000400190FEF723FD6D
:101C000007463A460B467A487A4900F007F9CDE98B
:101C100004010EA951F82400FEF715FD07463A46C7
:101C20000B467348734900F0F9F8CDE90201DDE98C
:101C30000423FEF735FBCDE908010EA850F8240077
:101C400080F000400390FEF7FEFC02460B46CDE913
:101C500004016748674900F0E1F8074600224FF0A9
:101C60008043FEF7C4FBCDE90601DDE90823FEF75A
:101C700030FC0022604BCDE90A01FEF7B5FBCDE94F
:101C80000C01FEF723FD0EA941F82400601CC4B22C
:101C9000052CADDB12992098FEF7D0FA0D90119922
:101CA0001F98FEF7CBFA0C9010991E98FEF7C6FA13
:101CB0000A900F991D98FEF7C1FA08900E991C988A
:101CC000FEF7BCFA069049461B98FEF7B7FA049057
:101CD00059461A98FEF7B2FA029031461998FEF763
:101CE000ADFA01900299FEF751FA03900499FEF7BC
:101CF0004DFA05900699FEF749FA07900899FEF704
:101D000045FA09900A99FEF741FA0B900C99FEF7F3
:101D10003DFA80460D99FEF739FA07461399FEF70A
:101D200035FA31903198FEF78EFC0022334BCDE925
:101D30000C01FEF75CFB0746FEF7C8FC319030490A
:101D40003198FEF77BFA0990FEF77DFC00222D4BBF
:101D5000CDE90A01FEF7BDFB074600222A4BFEF73C
:101D60009FFACDE90C01FEF7B1FC30904846FEF732
:101D70006AFC0746254A264BFEF778FC01D2254827
:101D800030903046FEF75FFC0746204A204BFEF7B6
:101D90006DFC01D200203090BAF5426F04DBB5F53E
:101DA000426F01DB1C48309000213098FEF7AAFCFE
:101DB00003D2002000F034FD10E016493098FEF701
:101DC000ABFC04D24FF47A7000F02AFD06E03098A4
:101DD000FEF70CFC87B2384600F022FD91E60000C9
:101DE000F82800088AB6233F0000002000408F40FA
:101DF0009B91048B0ABF05400000F03F0000594052
:101E00000000C8430000694000407F409A999999BA
:101E10009999B93F00007A440000FA432DE9F04D4A
:101E200016460F4694B01C4621F0004123F00042B4
:101E3000002814BF4FF0010C4FF0000C0CEB470CC6
:101E4000FE4B0CEB03054FEA630C65452BD33500C5
:101E500018BF012505EB44051D44F94B9D4222D3D3
:101E6000F84B52EA060C02D09F4205D148B914B093
:101E700000201946BDE8F08D002808BF4FF0000C87
:101E800001D04FF0010C0CEB470313F5001F0AD8EB
:101E9000002E14BF4FF0010C4FF0000C0CEB44036C
:101EA00013F5001F07D914B0324623463946BDE862
:101EB000F04DFFF741BDDFF890834FF0000A002F8F
:101EC000B8BF424523DAE14B9A42A8BF4FF0020A5D
:101ED0001DDADC4B93421ADCDD4B03EB2253142B4F
:101EE00008DDC3F1340C26FA0CF303FA0CFCB445FC
:101EF0000DD108E05EB9C3F1140C22FA0CF303FA19
:101F00000CFC944503D103F00103C3F1020A51EA2A
:101F100000031BD1002C19DA002F18BFBAF1020FF1
:101F200002D0BAF1010F07D00220FFF72DFD14B047
:101F3000BDE8F04DFFF7F8BC0220FFF725FDFFF7E5
:101F4000F3FC14B081F00041BDE8F08D330070D196
:101F5000424525D107F1804212F5801201BF0028C9
:101F60000020B84914B008BFBDE8F08DB5488842DC
:101F700007DC002CA1BF1846214614B0BDE8F08D47
:101F800007E0002CBFBF184684F0004114B0BDE844
:101F9000F08DB0497944D1E9000114B0BDE8F08D6D
:101FA000DFF8A0C262452AD1002C24DA39B14145BC
:101FB00017D1002804BF002002461CD106E040B122
:101FC0000220FFF7E1FCFFF7BFFC0A46394600F0AC
:101FD000D7BA9D4A394614B0002062F31E01BDE80D
:101FE000F08D08DA14B03B46BDE8F04D0246002003
:101FF0006146FEF76EBA14B03946BDE8F08D414532
:1020000017DAB4F1804F0CD0A4F10053B3F1FF53B1
:102010000FD13B1E0DDB14B01946BDE8F04D00F0AA
:10202000D9BB3B4614B00246BDE8F04D1946FEF759
:10203000DEB9050027F000433AD1E1B1414537D17F
:10204000002F06DD002CA1BF0020414614B0BDE8E2
:10205000F08D002F01DD002C1FDB002F16DA002C85
:1020600014DBBAF1010F4FF0000014BF76497A4932
:1020700014B0BDE8F08DBAF1020F18BF002F0CD0DC
:10208000BAF1010F09D1002F07DA0BE0002FB8BF1A
:10209000002C0DDABAF1010F04D0002014B0014673
:1020A000BDE8F08D14B000204FF00041BDE8F08D88
:1020B0004FF0010808EBE77CCDF814C05CEA0A0C8D
:1020C0000DD0DFF898C162457EDDDFF894C1654B25
:1020D000624512DD8B420ADB002C18DB23E0012075
:1020E000FFF752FC14B0BDE8F04DFFF727BC554A8E
:1020F0008A4202DC002C0ADC15E0994202DA002C4C
:1021000011DA04E04F4B994219DD002C0BDD02205F
:10211000FFF73AFCFFF718FC4B4A14B061F31E02BC
:102120001146BDE8F08D0220FFF72EFCFFF714FCEE
:10213000444A14B061F31E021146BDE8F08D00223E
:102140003946FEF74EF907460D466FF00102FEF7DD
:10215000B2FB4FF05532444BFEF746F93A462B4658
:10216000FEF745F90022414BFEF73EF980468B46CB
:102170003A462B4610461946FEF739F942465B4669
:10218000FEF735F988460E904FF0C042384B38467E
:102190002946FEF72CF983460091364A344B4146D6
:1021A0000E98FEF724F980460191334A334B3846A6
:1021B0002946FEF71CF94246019BFEF712F90D462F
:1021C00002460B460C9000E011E058460099FEF7DD
:1021D00067F8002788465A463846009BFEF701F903
:1021E0002B460C9AFEF700F9024600F079B9002060
:1021F000B1F5801F07DA352228461946FEF75BFB4A
:1022000005466FF0340000EB2150A0F2FF30019042
:10221000C1F3130040F07F6141F040510291184931
:102220008842D8BF4FF0000B35DD16498142C8BF48
:102230004FF0010B2FDC4FF0000B25E0FFFF1F00DC
:10224000FFFF0F000000F03F0000F07F0000404360
:1022500001FCFFFF580A00000000F0FF0000E04111
:102260000000F043FFFFEF3F5555D53F0000E03F32
:102270004715F73FFE822B6544DF5DF80BAE543EF9
:102280008E9803007AB60B000198401C01900298CA
:10229000A0F580100290FF480299784400EBCB0033
:1022A0000991D0E9002328460B931292FEF799F882
:1022B00000910A9028460B9B129A0999FDF7F0FFAE
:1022C00002460B460020F449FEF703F9CDE90C0164
:1022D0000B46024600990A98FEF789F80690EF48E7
:1022E0008846002778440299006810904FF000500B
:1022F00040EA610000EB8B4000F5002102910B9B4E
:10230000129A1098FEF76DF82A46099BFEF76CF8B2
:102310003A464346FEF76BF808911290384641461C
:10232000029B109AFEF763F8009B0A9AFEF75CF88E
:10233000089B129AFEF755F8DDE90C23FEF757F8D3
:102340000B91069A1290434610461946FEF74FF835
:1023500005460246D2480B460A9106217844FFF70B
:102360008EFA0A9B2A460891029010461946FEF7FB
:102370003EF8089B029AFEF73AF805460991434653
:1023800038461946069AFDF78BFF0B9B129AFEF70B
:102390002EF82A46099BFDF783FFCDE908013A464E
:1023A000434610461946FEF722F80A910022BD4B1B
:1023B0000090FDF775FFDDE90823FDF771FF0D467D
:1023C0003A46B84B3846FEF70CF80A9B009AFEF7DF
:1023D00008F8DDE90823FEF707F8CDE908013A46D9
:1023E0002B4610464146FEF702F800910A90DDE9BF
:1023F00008014346069AFDF7FAFF069088462B46E9
:102400003A460B991298FDF7F2FF4346069AFDF7FC
:1024100047FF80460B4602460D9100990A98FDF74A
:102420003FFF00200F460546009B0A9AFDF7D9FFA3
:1024300042460D9BFDF7D8FF88460E904FF0604254
:10244000994B28463946FDF7D2FF02910090974AF2
:10245000954B41460E98FDF7CAFF80460391944A7A
:10246000944B28463946FDF7C2FF4246039BFDF7D1
:1024700017FF914A7A4402EBCB03D3E90023FDF71F
:102480000FFF054607910198FEF792F80C90039113
:102490002A46079B02990098FDF702FF874A7A4473
:1024A00002EBCB03D3E9002393460193FDF7F8FE3B
:1024B000039B0C9AFDF7F4FE002788463846039BE1
:1024C0000C9AFDF78EFF5A46019BFDF78AFF029B8F
:1024D000009AFDF786FF2A46079BFDF785FF024617
:1024E0000020069005986C4DAAF10103184301D114
:1024F000734D069000200B46049030462146FDF7B0
:1025000076FF82468B46234630461946049AFDF7ED
:1025100068FF3A464346FDF76AFF52465B46FDF7C1
:10252000BFFE06468A463A46434621460498FDF7D2
:102530005EFF04460F4632465346FDF7B1FE614A40
:102540008B46914221DBABEB020353EA000210D130
:1025500022463B46FDF745FF804603915A4A5B4BB6
:1025600030465146FDF79CFE4246039BFEF796F827
:1025700027D20220FFF708FAFFF7E6F90A462946B4
:1025800014B062F31E01BDE8F08D514B2BF00042F8
:102590009A4216D34F4A0BEB020353EA000208D1CA
:1025A00022463B46FDF71DFF32465346FEF776F8BE
:1025B00007D80220FFF7E8F9FFF7CEF90A462946C7
:1025C000DEE72BF000404449444A01EB20514FF034
:1025D0000008824223DA481C4FF4801121FA00F0EF
:1025E00058443F4AC0F30A517A443E4BA1F2FF31AE
:1025F000CB4020EA0303C0F3130040F4801CC1F178
:10260000140012682CFA00F8BBF1000FB8BFC8F133
:10261000000820463946FDF7E4FE04460F462246F0
:102620003B4630465146FDF73BFE4FF0000B5A4605
:102630002D4B58460391FDF7DAFE00910A902B4A84
:102640002B4B58460399FDF7D2FE04910290224687
:102650003B4658460399FDF7C4FE32465346FDF704
:10266000C3FE244A244BFDF7C2FE049B029AFDF7E9
:1026700017FE07468A46009B0A9AFDF711FE04469C
:102680000E46009B0A9AFDF7ACFE3A465346FDF70C
:10269000ABFE33E0CA0600000000F03F0807000070
:1026A000380600000000084009C7EE3FFD033ADC91
:1026B000F5015B14E02F3EBE10050000D6040000BB
:1026C0000000F0BF00009040FE822B654715973C4C
:1026D00000CC904000346F3F01FCFFFF0000E03F62
:1026E00004040000FFFF0F00432EE63F396CA80CE6
:1026F000615C20BEEF39FAFE422EE63F07462246D5
:1027000033460F9110461946FDF771FE8346024687
:102710002E488A460B4605217844FFF7B0F85A4602
:102720005346FDF764FE22463346FDF75DFE8246C2
:102730008B463A46204631460F9BFDF758FE3A46F7
:102740000F9BFDF7ADFD0F460A9000224FF080432E
:1027500050465946FDF745FE0391009052465B46B0
:1027600020463146FDF743FE039B009AFDF7B1FE7C
:102770003B460A9AFDF735FE22463346FDF731FE09
:102780000022134BFDF730FE0E46044601EB0851C4
:102790000815002810DC424620463146FEF78BF82B
:1027A000FFF759F8042808BFFFF7D6F8424620463D
:1027B0003146FEF780F8044606980B4614B02246D0
:1027C0002946BDE8F04DFDF712BE0000AC02000046
:1027D0000000F03F2DE9F04106460F46FEF794F861
:1027E00004000D4618BF0120284320F00040C0F12E
:1027F0007F6000F1E040C00F0ED0301C18BF0120F8
:10280000384320F00040C0F17F6000F1E040C00F8D
:1028100004BF0120FFF7B8F820462946BDE8F08143
:1028200010B5044640F63400001B81B24FF08040E2
:10283000FEF78DFE10BD000000B587B0012144F207
:102840000400FEF713FB4FF48060ADF8180004207D
:102850008DF81B0006A91848FEF7F1F925208DF820
:10286000040003208DF805008DF8060001208DF886
:10287000070001A8FEF7A4FA4FF4165002900020BA
:10288000ADF80C00ADF80E00ADF81000ADF8140076
:102890000C20ADF8120002A90848FEF769FF0122DA
:1028A00040F225510548FEF73DFF01210348FEF7A0
:1028B00003FF07B000BD00000008014000380140E0
:1028C0002DE9F04704462046FDF783FE0746074AF8
:1028D000074BFDF78CFD0546FDF79CFE1FFA80F9BE
:1028E00049460448FEF733FEBDE8F0879A99999966
:1028F0009999C93F00040040462B0A3F240A3ABF79
:102900002C5461BFF059623F926A633F6F53883F16
:10291000A815CC3DEDE1EFBFD0744E3EC0A8DDBEA2
:10292000F5F2A9BF585B79BFD8BFA93EBD00A7BFCC
:10293000C1AB853F17D5F93E37B2153E526AF0BE9E
:102940006B717D3E48C601BEDE5773BDAA790C3D52
:1029500090BB97BE2E14363F9E38C1C0DD232C3F5E
:10296000F23D7440211A1E40000000000000F03FBC
:10297000000000000000F83F000000000000000020
:102980000000004003B8E23F00000000000000002B
:1029900006D0CF43EBFD4C3E033333333333E33FB9
:1029A000FFAB6FDBB66DDB3F4D268F515555D53FE5
:1029B00001411DA96074D13F65DBC9934A86CD3FB3
:1029C000EF4E454A287ECA3F3E5555555555C53FA1
:1029D00093BDBE166CC166BF2CDE25AF6A56113F93
:1029E000F16BD2C541BDBBBED0A4BE726937663E95
:1029F0000000000000000000182A0008000000206D
:102A00005C00000068190008742A00085C000020BF
:102A10000C0400007819000800000000000000000D
:102A200000000000000000000000000000000000A6
:102A3000000000000A0000000A0000000A00000078
:102A40000000164300000000010203040102030419
:102A5000060708090204060800A24A040000000054
:102A6000000000000102030406070809000000003E
:042A70000000000062
:0400000508000131BD
:00000001FF
