:020000040800F2
:100000006804002045010008BF0D0008B70D000876
:10001000BB0D0008390C000857180008000000004C
:10002000000000000000000000000000810F000838
:100030003D0C000800000000310E0008951000087B
:100040005F0100085F0100085F0100085F01000810
:100050005F0100085F0100085F0100085F01000800
:100060005F0100085F0100085F0100085F010008F0
:100070005F0100085F0100085F0100085F010008E0
:100080005F0100085F0100085F0100085F010008D0
:100090005F0100085F0100085F0100085F010008C0
:1000A0005F010008591100085F0100085F010008A6
:1000B00029120008C5120008651300085F01000836
:1000C0005F0100085F0100085F0100085F01000890
:1000D0005F010008011600085F0100085F010008C9
:1000E0005F0100085F0100085F0100085F01000870
:1000F0005F0100085F0100085F0100085F01000860
:100100005F0100085F0100085F0100085F0100084F
:100110005F0100085F0100085F0100085F0100083F
:100120005F0100085F0100085F0100085F0100082F
:10013000DFF80CD000F0D6FB00480047A51A0008F5
:10014000680400200648804706480047FEE7FEE7AF
:10015000FEE7FEE7FEE7FEE7FEE7FEE7FEE7FEE777
:10016000991000083101000840EA01039B0703D001
:1001700009E008C9121F08C0042AFAD203E011F8E6
:10018000013B00F8013B521EF9D27047F0B480EAFF
:100190000102D40F4200B2EB410F02D202460846E0
:1001A00011464A0042D0C30DDDB2C1F3C752AD1AA9
:1001B000202D35DAC1F3160141F4000204B1524298
:1001C000C5F1200602FA06F12A411044B3EBD05FD4
:1001D00023D0C4B1012DA0EBC35009DCF0BC4FF01B
:1001E000004202EAC352DBB200F5000000F0C0BAE0
:1001F000400000F1807000EBC350A0F1807040EA35
:10020000D170490009E0490841EAC071A0EBC35030
:1002100000F50000400800EBC350F0BC00F09FBAAE
:100220006142012202EB4101001BF6E7F0BC70477E
:1002300081F00041AAE780F00040A7E780EA0102D0
:1002400010B502F00043400022D04A001FD0010E3A
:1002500001EB1261C0F35600C2F3560240F40000F5
:1002600042F40002A0FB022000047F39140400D0F5
:10027000401C50EA124001D44000491EC2B20C0694
:1002800004EBD010401C4008802A02D003E000207C
:1002900010BD20F00100002900DA0020184310BD35
:1002A0002DE9FE4F804681EA0300C00F0C46009006
:1002B00021F0004123F00045B8EB0200A94105D22E
:1002C0004046214690461C460B46024623F000401D
:1002D000104347D0270DC7F30A00C3F30A51029019
:1002E000401A019040286BDAC3F3130040F4801BDE
:1002F0000098924620B10023D2EB030A63EB0B0B6C
:1003000001985946C0F14002504600F0F7F9064600
:100310000D4650465946019A00F00FFA10EB0800BE
:100320006141002487EA115284EAE7731A4340D0FE
:10033000009A62B3019A012A4FEA075215DC001BAA
:1003400061EB02014FF0004202EA0752CDE90042A0
:10035000001C41F5801132462B4600F046FA03B0EE
:10036000BDE8F08F40462146F9E7001B61EB020132
:10037000001C41F5801300185B412018A2F50017FE
:1003800047EB030140EAD570B6196D4111E06D08E5
:100390004FEA360645EAC0754FEA0752001B61EB8B
:1003A0000201001C41F5801149084FEA3000001994
:1003B000514132462B4603B0BDE8F04F00F006BA7B
:1003C0000098012240000023D0EB020263EBE073AF
:1003D000009821464FEAE074B8EB000061EB04019D
:1003E000E9E783F000435BE781F0004158E72DE93E
:1003F000FE4F81EA030404F0004421F00041009420
:100400004FF0000B23F0004350EA01045ED052EAA3
:1004100003045BD0C3F30A54C1F30A552C44A4F27D
:10042000F3340194A0FB0254C1F3130141F4801191
:10043000C3F3130343F4801301FB024400FB034E98
:10044000840A970A44EA815447EA8357A4FB076861
:1004500002958D0A05FB07854FEA932C04FB0C548B
:100460002705029D4FEA065847EA1637B5EB0805FF
:100470006EEB070C870E920E47EA811742EA831251
:10048000A7FB0201B6EB0B0164EB00042B0D43EA62
:100490000C335E1844EB1C50DA465146E7FB020170
:1004A000C5F313044FEA0B3343EA14534FEA043203
:1004B000019C43EA0603A4F10C040294009CCDE9DC
:1004C00000B400F092F903B0BDE8F08F00200146BF
:1004D000F9E72DE9F04D81EA030404F0004B21F027
:1004E000004514464FF0000A23F0004150EA05028F
:1004F00020D054EA01021DD0C5F30A570246C5F3C5
:100500001303C1F31300C1F30A5640F4801543F4FA
:100510008013A7EB0608101BD64608F2FD3873EBD4
:10052000050002D308F1010801E092185B41B8F11F
:10053000000F03DA00200146BDE8F08D00204FF4E3
:100540008011064684460EE0171B73EB050705D3A2
:10055000121B63EB050306434CEA010C49084FEA02
:10056000300092185B4150EA0107EDD152EA0300D6
:1005700012D082EA040083EA0501084305D0101B6B
:10058000AB4106D20122002306E000224FF00043D7
:1005900002E06FF0010253101AEB06004CEB085119
:1005A00010EB0A0041EB0B01BDE8F04D00F00EB975
:1005B0000EB5C10F80EAE0700844CA07002140F27E
:1005C00033438DE80E000A460B4600F00EF903B0E7
:1005D00000BD0EB540F2334102910021CDE900117A
:1005E0000A460B4600F001F903B000BD20F00040C0
:1005F000C10DC0F3160040F400007F2901DA00208D
:100600007047962903DCC1F19601C84070479639BE
:1006100088407047C1F30A5210B5C1F3130140F28C
:10062000FF3341F480119A4201DA002010BD40F2FC
:1006300033439A42A2F2334203DC524200F06DF897
:1006400010BD904010BD00F0004230F000400AD0D4
:10065000C10D01F56071C0F3160042EA0151C208F4
:1006600040071143704700200146704730B5041E13
:1006700071F1000404DB4FF00044404264EB0101DF
:10068000141E73F1000405DB1C464FF00043524278
:1006900063EB04038B4208BF824230BD01F000438C
:1006A00030B421F0004150EA010206D00A0DA2F553
:1006B0006072C1F31301002A02DC30BC00207047D5
:1006C000440F44EAC104C100E01830BC00EBC25042
:1006D00000F045B8002801DBC0F10040002901DB33
:1006E000C1F1004181427047002801DBC0F10040A8
:1006F000002901DBC1F1004188427047202A04DB58
:10070000203A00FA02F1002070479140C2F1200324
:1007100020FA03F3194390407047202A04DB203A63
:1007200021FA02F00021704721FA02F3D040C2F111
:1007300020029140084319467047202A06DBCB1758
:10074000203A41FA02F043EAE07306E041FA02F38C
:10075000D040C2F120029140084319467047002959
:10076000A8BF7047401C490008BF20F00100704737
:1007700010B4B0FA80FC00FA0CF050EA010404BF97
:1007800010BC704749B1CCF1200421FA04F411FAED
:100790000CF118BF012121430843A3EB0C01CB1D31
:1007A0004FEA00614FEA102042BF002010BC7047A2
:1007B00000EBC35010440029A4BF10BC7047401C7C
:1007C000490008BF20F0010010BC704710B5141E8E
:1007D00073F1000408DA401C41F1000192185B41FA
:1007E0001A4301D120F0010010BD2DE9F04D9246D1
:1007F0009B4611B1B1FA81F202E0B0FA80F22032E8
:100800009046FFF77BFF04460F4640EA0A0041EAA4
:100810000B0153465A46084313D0114653EA0100D0
:1008200019D0C8F140025046FFF777FF05460E4643
:10083000504659464246FFF761FF084305D0012064
:1008400004E020463946BDE8F08D0020054346EA25
:10085000E0762C4337430A986305E40AA0EB0800CE
:100860000022FD0A44EA47540A3002D5002001461E
:10087000E9E7010510196941DDE9084500196941F9
:10088000BDE8F04DA2E770B521F0004303430CD062
:10089000C1F30A550024D5EB040564EB0403D61715
:1008A000AD1AB34102DB0020014670BD201841EBB8
:1008B000025170BD30B5041E71F1000404DB4FF02D
:1008C0000044404264EB0101141E73F1000405DB97
:1008D0001C464FF00043524263EB0403994208BFA9
:1008E000904230BD064C074D06E0E06840F0010341
:1008F00094E8070098471034AC42F6D3FFF71CFC8D
:10090000002A0008202A00082DE9F04D00231A468D
:100910001B1A8A4103DB00200146BDE8F08DC1F3BC
:100920000A52C1F3130141F480154FF0000BD107B7
:1009300002D100186D41521E0027044640F2FF11FB
:10094000384601EB620A3E468046024600204FF4DC
:100950008011FFF7E2FEC2197141BB1846EB01009E
:10096000B4EB030C75EB000C04D3E41A65EB000543
:1009700017460E46241908F101006D4180463428BF
:10098000E3DDF91946EB0600091BA84103D24FF03D
:10099000FF32134601E0002213461BEB070046EB33
:1009A0000A51BDE8F04DFFF711BF21B1826842F056
:1009B0000102826003E0826822F0010282607047D7
:1009C00010B504461248844208D10121401500F0B8
:1009D0005DFA0021601500F059FA17E00D488442D5
:1009E00008D10121001500F051FA0021201500F076
:1009F0004DFA0BE00848844208D10121C80300F0F9
:100A000045FA00214FF4004000F040FA10BD00000C
:100A10000024014000280140003C01400146002024
:100A20008A6802F004020AB1012000E00020704749
:100A30000146C86C80B270470246002013680B4024
:100A40000BB1012000E000207047014600208A68B9
:100A500002F008020AB1012000E000207047000007
:100A600030B502460020002350680F4C20400D791D
:100A70000C6844EA05242043506090680B4C2040E9
:100A8000D1E902542C434D7944EA45042043906057
:100A9000D06A20F470000C7C641EE4B2234340EA68
:100AA0000350D06230BD0000FFFEF0FFFDF7F1FF04
:100AB000F0B504460D4600200021092D11DDE06847
:100AC000A5F10A0606EB4607072606FA07F1884352
:100AD000A5F10A0606EB460603FA06F10843E060B4
:100AE0000CE0206905EB4507072606FA07F1884365
:100AF00005EB450603FA06F108432061072A0FDAE1
:100B0000606B561E06EB86071F2606FA07F1884320
:100B1000561E06EB860605FA06F10843606322E0DE
:100B20000D2A0FDA206BD61F06EB86071F2606FA62
:100B300007F18843D61F06EB860605FA06F108433F
:100B4000206310E0E06AA2F10D0606EB86071F267F
:100B500006FA07F18843A2F10D0606EB860605FAB0
:100B600006F10843E062F0BD816841F00801816050
:100B7000704721B1826842F4A002826003E082687B
:100B800022F4A00282607047816841F00401816014
:100B90007047000000B587B001214FF4017000F0EC
:100BA00065F94FF4004000F045F90D20ADF8040060
:100BB00000208DF8070001A91C4800F040F8032030
:100BC000ADF8040000208DF8070001A9184800F0D6
:100BD00036F81848FFF7F4FE002002908DF80C005C
:100BE0008DF80D004FF46020049000200590012046
:100BF0008DF8180002A90F48FFF732FF01210D48B8
:100C0000FFF7D3FE0B48FFF7AFFF00BF0948FFF720
:100C10001CFF0028FAD10748FFF7B6FF00BF0548C0
:100C2000FFF7FCFE0028FAD107B000BD0008014024
:100C3000000C01400024014000BFFEE770472DE991
:100C4000F041024600250026002000230024002752
:100C500091F803C00CF00F0591F803C00CF0100CD4
:100C6000BCF1000F03D091F802C04CEA050591F8E1
:100C700000C0BCF1000F31D0146800202BE04FF011
:100C8000010C0CFA00F3B1F800C00CEA03069E4216
:100C900020D183004FF00F0C0CFA03F7BC4305FA88
:100CA00003FC4CEA040491F803C0BCF1280F06D100
:100CB0004FF0010C0CFA00FCC2F814C00AE091F8E5
:100CC00003C0BCF1480F05D14FF0010C0CFA00FC39
:100CD000C2F810C0401C0828D1D31460B1F800C07D
:100CE000BCF1FF0F34DD546800202EE000F1080C49
:100CF0004FF0010808FA0CF3B1F800C00CEA030643
:100D00009E4221D183004FF00F0C0CFA03F7BC4335
:100D100005FA03FC4CEA040491F803C0BCF1280F67
:100D200005D100F1080C08FA0CF8C2F8148091F80B
:100D300003C0BCF1480F07D100F1080C4FF00108C7
:100D400008FA0CF8C2F81080401C0828CED3546072
:100D5000BDE8F08110B50446072301222146094869
:100D6000FFF7A6FE01210748FFF703FF00BF02219E
:100D70000448FFF761FE0028F9D00248FFF758FE4B
:100D800010BD0000002401402DE9F04107460C464B
:100D90000025002608E03846FFF7DCFF0544012067
:100DA00000F01CFE701CC6B2A642F4DBB5FBF4F0EA
:100DB00080B2BDE8F08100BFFEE700BFFEE77047EC
:100DC00070B5002100230F22C47804B3154C2468A9
:100DD00004F4E064C4F5E064210AC1F10403CA40EC
:100DE000447804FA03F184781440214309010E4C3D
:100DF0000678A155047804F01F050124AC4005785D
:100E00006D11AD0005F1E025C5F8004109E0047859
:100E100004F01F050124AC40044D0678761145F816
:100E2000264070BD0CED00E000E400E080E100E051
:100E30007047000001460020034A506820F44040FB
:100E400008435060704700000010024029B1064A74
:100E5000D2690243044BDA6104E0034AD269824357
:100E6000014BDA61704700000010024029B1064AC8
:100E700092690243044B9A6104E0034A92698243F7
:100E8000014B9A61704700000010024029B1064AE8
:100E9000D2680243044BDA6004E0034AD26882431A
:100EA000014BDA60704700000010024030B50021AD
:100EB0000022002400232D4D6D6805F00C0121B1A6
:100EC000042905D0082923D105E0294D056022E039
:100ED000274D05601FE0254D6D6805F47012234D08
:100EE0006D6805F48034022505EB92421CB9214D52
:100EF000554305600BE01D4D6D6805F400351DB1CF
:100F00001C4D5543056002E0194D5543056002E054
:100F1000174D056000BF00BF144D6D6805F0F0016E
:100F20000909154D6B5C0568DD4045600F4D6D6826
:100F300005F4E061090A104D6B5C4568DD40856091
:100F40000A4D6D6805F46051C90A0B4D6B5C45682C
:100F5000DD40C560054D6D6805F44041890B074DC6
:100F60006B5CC568B5FBF3F5056130BD0010024050
:100F700000127A0000093D002C0000203C000020F7
:100F8000704710B500F002F810BD00000CB500204D
:100F9000019000903348006840F480303149086087
:100FA00000BF3048006800F4003000900198401CF9
:100FB0000190009818B90198B0F5A06FF1D12948B7
:100FC000006800F4003010B10120009001E0002022
:100FD00000900098012843D12348006840F0100099
:100FE000214908600846006820F0030008600846B0
:100FF000006840F0020008601A48406819494860DB
:101000000846406848600846406840F48060486090
:101010000846406820F47C1048600846406840F468
:10102000E81048600846006840F08070086000BF23
:101030000C48006800F000700028F9D009484068AA
:1010400020F00300074948600846406840F002006D
:10105000486000BF0348406800F00C000828F9D140
:101060000CBD00000010024000200240042808D1FE
:101070004FF0E021096941F004014FF0E0221161D5
:1010800007E04FF0E021096921F004014FF0E02270
:10109000116170477047000010B51348006840F0B8
:1010A00001001149086008464068104908400E498F
:1010B0004860084600680E4908400B490860084629
:1010C000006820F4802008600846406820F4FE0094
:1010D00048604FF41F008860FFF753FF4FF0006037
:1010E0000449086010BD0000001002400000FFF835
:1010F000FFFFF6FE08ED00E07FB505460C46012136
:10110000C802FFF7B3FEADF80850ADF80440002068
:10111000ADF80A00ADF8060001A90E4800F01EFA6D
:10112000012211460B4800F0ACF919208DF800009F
:1011300000208DF8010003208DF8020001208DF8B9
:1011400003006846FFF73CFE0121024800F079F9F0
:101150007FBD0000002C01402DE9F0470121274808
:1011600000F07EF9002846D00121244800F066F9FD
:101170002348006823490860234800682049086024
:1011800022480088A0F516701F49086008460068CC
:10119000FFF70EFA064600221D4BFFF728F904461A
:1011A00000221C4BFFF77CF88046FFF777FA1A49BC
:1011B00008601A4918480068FFF796FA03D21748E2
:1011C0001549086008E0164913480068FFF782FADD
:1011D00002D21348104908600C480088B0F5576FD8
:1011E00002D110480C4908600B480068FFF7FEF96F
:1011F000044601F067FBBDE8F0870000002C0140C9
:1012000020000020240000201C00002000000020FE
:101210000000E03F00805640280000200000D2423D
:101220000000F0410000DC4210B50121880700F009
:1012300017F918B10121880700F000F910BD00006E
:1012400030B589B005460C4601210846FFF7FEFD82
:1012500001210520FFF70AFE0220ADF8200018202A
:101260008DF8230003208DF8220008A91448FFF709
:10127000E6FCADF81850ADF814400020ADF81A00A7
:10128000ADF8160005A94FF0804000F067F9602026
:10129000ADF804000120ADF806000020ADF80C0008
:1012A00001A94FF0804000F0F5F80821C80600F0D1
:1012B00043F90121880700F0C4F809B030BD0000EF
:1012C0000008014010B50121044800F0C9F818B128
:1012D0000121024800F0B2F810BD000000040040F7
:1012E00030B589B005460C4601210220FFF7AEFD5E
:1012F00001210520FFF7BAFD8020ADF8200018205D
:101300008DF8230003208DF8220008A91348FFF769
:1013100096FCADF81850ADF814400020ADF81A0056
:10132000ADF8160005A90E4800F018F96020ADF8D8
:1013300004000120ADF806000020ADF80C0001A962
:10134000074800F0A7F80821054800F0F5F801214A
:10135000034800F076F809B030BD000000080140F5
:101360000004004010B501212F4800F079F8B8B111
:101370002E48008864280ED12C4800884CF2503149
:1013800048432B490860002028490880002126484E
:1013900000F0E1F804E025480088401C234908805B
:1013A0000221214800F05CF8C8B3224800780428E4
:1013B0001AD11D4800F051F81C49098840F6354201
:1013C00051431D4A126802EB011108441849086094
:1013D0000020164908801749087017490860002145
:1013E000114800F0B8F81AE012480078401C114982
:1013F00008700D4800F031F80C49098840F6354274
:10140000514300EB01100C49096808440A4908607F
:101410000020064908800021034800F09CF80321C1
:10142000014800F00BF810BD000800400400002047
:1014300008000020100000200C000020CA43028297
:10144000704721B1028842F00102028004E0028864
:101450004FF6FE731A40028070470146888E70472F
:1014600030B50246002000230024158A05EA010356
:10147000958905EA010413B10CB1012000E00020B8
:1014800030BD1AB183890B43838102E083898B438A
:101490008381704770B5002400220023058C4FF62D
:1014A000EF7635400584028C8388048B48F6FF75FF
:1014B0002C404FF6FF452C400D884FF6FF7606EA8C
:1014C00005252C434FF6DF752A400D8906EA0515E0
:1014D0002A434D8806EA05152A43154DA84202D035
:1014E000144DA8421DD14FF67F752A404D894FF605
:1014F000FF7606EA05152A434FF6BF752A408D8808
:1015000006EA05152A434FF6FF352B404FF2FF75CB
:101510002B408D8906EA85052B43CD8906EA850592
:101520002B4383800483CD880587028470BD00002F
:10153000002C0140003401400A460021018B4FF28B
:10154000FF7319404FF6FF7303EA02231943018327
:10155000704701877047818470470000002202882D
:101560001D4B98420ED01D4B98420BD0B0F1804FCE
:1015700008D01B4B984205D01A4B984202D01A4B08
:10158000984204D14FF68F731A404B881A43174B79
:10159000984207D0164B984204D04FF6FF431A40AA
:1015A000CB881A4302808B8883850B8803850A4B7E
:1015B00098420BD0094B984208D00E4B984205D068
:1015C0000D4B984202D00D4B984201D10B7A038605
:1015D0000123838270470000002C01400034014049
:1015E0000004004000080040000C004000100040D3
:1015F0000014004000400140004401400048014008
:1016000010B540F22551264800F064F8002845D076
:10161000234800F01BF9C4B2232C02D10120214938
:10162000087020480078012838D1232C36D0242C8B
:1016300009D01D481D49097844541C480078401CB5
:101640001A4908702AE000201649087018490880D5
:101650001849087011E0144816490978405C303880
:101660001349098801EB810100EB41001049088012
:1016700010480078401C0F4908700E4800780B494C
:1016800009788842E7DB0A4800880B490880002077
:1016900004490870064908800449087010BD00001C
:1016A00000380140120000205C00002014000020DF
:1016B00016000020130000201800002021B18289AC
:1016C00042F40052828104E082894DF6FF731A4091
:1016D0008281704770B50246002400230025002057
:1016E00040F66A16B14200D100BFC1F3421501F0C5
:1016F0001F03012606FA03F3012D02D19689334018
:1017000006E0022D02D1168A334001E0968A33406A
:101710000C12012606FA04F41688344013B10CB1F9
:10172000012000E0002070BDF0B503460024002633
:101730000025002040F66A17B94200D100BF1846C4
:10174000C1F3421401F01F06012707FA06F5012C28
:1017500001D10C3004E0022C01D1103000E0143033
:101760001AB107682F43076002E00768AF430760BC
:10177000F0BD00002DE9F04786B005460E46002476
:10178000A24600BFA1460027B08900B100BF2F4686
:101790002C8A4CF6FF700440F08804432C82AC89FC
:1017A0004EF6F3100440B08831890843718908432C
:1017B0000443AC81AC8A4FF6FF400440B089044337
:1017C000AC8201A8FFF772FB1F48874202D1DDF807
:1017D00010A001E0DDF80CA0A88900F4004040B1A1
:1017E0000AEBCA0000EB0A1031684900B0FBF1F8BF
:1017F00007E00AEBCA0000EB0A1031688900B0FB71
:10180000F1F86420B8FBF0F004012009642101FB29
:101810001089A88900F4004040B1322000EBC900D3
:10182000B0FBF1F000F00700044308E0322000EBC9
:1018300009106421B0FBF1F000F00F0004432C818B
:1018400006B0BDE8F08700000038014001468888F6
:10185000C0F30800704700BFFEE7490050EAC1200E
:1018600018BF04204A0D18BF40F0010040F2FF727B
:10187000B2EB515F08BF40F00200012808BF05200D
:1018800070472DE9F0414F1E00EBC7010446D1E936
:10189000000115461E4637F006020DD02A46334693
:1018A000FEF7A5FD7F1E04EBC703D3E90023FEF777
:1018B000F7FC37F00602F1D1022F25D0042F13D008
:1018C000062F18BFBDE8F0812A463346FEF78FFD8C
:1018D000D4E90A23FEF7E4FC2A463346FEF787FDE7
:1018E000D4E90823FEF7DCFC2A463346FEF77FFDE9
:1018F000D4E90623FEF7D4FC2A463346FEF777FDEB
:10190000D4E90423FEF7CCFC2A463346FEF76FFDEC
:10191000D4E90223FEF7C4FC2A463346FEF767FDEE
:10192000D4E90023BDE8F041FEF7BABC002213461B
:1019300010460149FEF7CDBD0000F03FFEF7B0BCF8
:101940000022134610461146FEF7C3BD40F2013295
:1019500000204FF0E041FEF796BF0000024A002051
:101960001107FEF790BF000001FDFFFF02E008C86D
:10197000121F08C1002AFAD170477047002001E009
:1019800001C1121F002AFBD1704700000149086005
:10199000704700005800002010B56FF00400FFF7FA
:1019A00065FB0A4800680A49B0FBF1F00949087074
:1019B0000846007800EB4001C1EBC0104FF6FF7104
:1019C00001EAC0000449088010BD0000400000206A
:1019D00000127A0054000020560000200146114AEF
:1019E00012884A434FF0E0235A6100229A611A4656
:1019F000126942F001021A6100BF4FF0E022106943
:101A000000F001021AB100F48032002AF5D04FF044
:101A1000E022126922F001024FF0E0231A61002255
:101A20009A617047560000200146114A12784A43D5
:101A30004FF0E0235A6100229A611A46126942F07F
:101A400001021A6100BF4FF0E022106900F00102AC
:101A50001AB100F48032002AF5D04FF0E02212696A
:101A600022F001024FF0E0231A6100229A617047D0
:101A70005400002070B54FF4576400250AE0084870
:101A80000088844201DD064804886420FFF7CCFF0B
:101A9000681C85B2B5F57A7FF1DB204670BD000089
:101AA00018000020B2B03C22CE4921A8FEF75CFB12
:101AB0001422CC493C311CA8FEF756FBC94A5032CF
:101AC000D2E900109268CDE91A0219911422C54991
:101AD0005C3114A8FEF748FBC3481390FFF75CFF86
:101AE000FFF758F800F0AAFE4721C720FFF7F8FBE0
:101AF000472144F61F60FFF7A3FB40F2CF210920E6
:101B0000FFF7FAFA6CE1FFF7B5FFB8490880032147
:101B10000020FFF739F90B90FEF75BFD0022B44B74
:101B2000CDE90C01FEF7D5FC0746FEF7B7FD0646EA
:101B300003210220FFF728F90B90FEF74AFD00224F
:101B4000AB4BCDE90C01FEF7C4FC0746FEF7A6FD42
:101B5000834603210846FFF717F90B90FEF739FD7E
:101B60000022A34BCDE90C01FEF7B3FC0746FEF7BC
:101B700095FD814603210820FFF706F982460321DF
:101B80000920FFF701F9054600242FE004EB44018A
:101B900021AA02EB810188684946FEF74FFB04EB5E
:101BA000440121AA02EB81010D9048685946FEF7D5
:101BB00045FB04EB440121AA0C9052F82100314668
:101BC000FEF73CFB0B900C99FEF7E0FA80460D996E
:101BD000FEF7DCFA074614A850F824103846FEF742
:101BE000D5FA0EA941F82400601CC4B2052CCDDB47
:101BF00000244FE00EA850F8240080F0004001902F
:101C0000FEF721FD07463A460B467A487A4900F02E
:101C100007F9CDE904010EA951F82400FEF713FDE0
:101C200007463A460B467348734900F0F9F8CDE988
:101C30000201DDE90423FEF733FBCDE908010EA81C
:101C400050F8240080F000400390FEF7FCFC0246B0
:101C50000B46CDE904016748674900F0E1F8074603
:101C600000224FF08043FEF7C2FBCDE90601DDE91B
:101C70000823FEF72EFC0022604BCDE90A01FEF797
:101C8000B3FBCDE90C01FEF709FD0EA941F82400D4
:101C9000601CC4B2052CADDB12992098FEF7CEFA79
:101CA0000D9011991F98FEF7C9FA0C9010991E9883
:101CB000FEF7C4FA0A900F991D98FEF7BFFA089034
:101CC0000E991C98FEF7BAFA069049461B98FEF743
:101CD000B5FA049059461A98FEF7B0FA02903146C8
:101CE0001998FEF7ABFA01900299FEF74FFA0390AC
:101CF0000499FEF74BFA05900699FEF747FA07900C
:101D00000899FEF743FA09900A99FEF73FFA0B90FB
:101D10000C99FEF73BFA80460D99FEF737FA074615
:101D20001399FEF733FA31903198FEF78CFC0022BC
:101D3000334BCDE90C01FEF75AFB0746FEF7AEFC2C
:101D4000319030493198FEF779FA0990FEF77BFC23
:101D500000222D4BCDE90A01FEF7BBFB074600220E
:101D60002A4BFEF79DFACDE90C01FEF797FC309067
:101D70004846FEF768FC0746254A264BFEF776FCE8
:101D800001D2254830903046FEF75DFC0746204AD8
:101D9000204BFEF76BFC01D200203090BAF5426F69
:101DA00004DBB5F5426F01DB1C4830900021309810
:101DB000FEF790FC03D2002000F034FD10E016493D
:101DC0003098FEF791FC04D24FF47A7000F02AFDAF
:101DD00006E03098FEF70AFC87B2384600F022FD94
:101DE00091E60000FC2800088AB6233F000000208E
:101DF00000408F409B91048B0ABF05400000F03FDC
:101E0000000059400000C8430000694000407F4086
:101E10009A9999999999B93F00007A440000FA4338
:101E20002DE9F04D16460F4694B01C4621F00041B6
:101E300023F00042002814BF4FF0010C4FF0000CBB
:101E40000CEB470CFE4B0CEB03054FEA630C6545AE
:101E50002BD3350018BF012505EB44051D44F94B74
:101E60009D4222D3F84B52EA060C02D09F4205D184
:101E700048B914B000201946BDE8F08D002808BF0D
:101E80004FF0000C01D04FF0010C0CEB470313F5A1
:101E9000001F0AD8002E14BF4FF0010C4FF0000CA9
:101EA0000CEB440313F5001F07D914B03246234648
:101EB0003946BDE8F04DFFF741BDDFF890834FF0A4
:101EC000000A002FB8BF424523DAE14B9A42A8BF6F
:101ED0004FF0020A1DDADC4B93421ADCDD4B03EBB8
:101EE0002253142B08DDC3F1340C26FA0CF303FA49
:101EF0000CFCB4450DD108E05EB9C3F1140C22FA14
:101F00000CF303FA0CFC944503D103F00103C3F175
:101F1000020A51EA00031BD1002C19DA002F18BF66
:101F2000BAF1020F02D0BAF1010F07D00220FFF779
:101F30002DFD14B0BDE8F04DFFF7F8BC0220FFF70F
:101F400025FDFFF7F3FC14B081F00041BDE8F08DF2
:101F5000330070D1424525D107F1804212F580123D
:101F600001BF00280020B84914B008BFBDE8F08DBB
:101F7000B548884207DC002CA1BF1846214614B0A2
:101F8000BDE8F08D07E0002CBFBF184684F000418B
:101F900014B0BDE8F08DB0497944D1E9000114B026
:101FA000BDE8F08DDFF8A0C262452AD1002C24DA0A
:101FB00039B1414517D1002804BF002002461CD189
:101FC00006E040B10220FFF7E1FCFFF7BFFC0A4644
:101FD000394600F0D7BA9D4A394614B0002062F362
:101FE0001E01BDE8F08D08DA14B03B46BDE8F04DA7
:101FF000024600206146FEF76CBA14B03946BDE8CF
:10200000F08D414517DAB4F1804F0CD0A4F10053A4
:10201000B3F1FF530FD13B1E0DDB14B01946BDE8E1
:10202000F04D00F0D9BB3B4614B00246BDE8F04D80
:102030001946FEF7DCB9050027F000433AD1E1B1BB
:10204000414537D1002F06DD002CA1BF00204146BD
:1020500014B0BDE8F08D002F01DD002C1FDB002F38
:1020600016DA002C14DBBAF1010F4FF0000014BF98
:1020700076497A4914B0BDE8F08DBAF1020F18BF65
:10208000002F0CD0BAF1010F09D1002F07DA0BE0B5
:10209000002FB8BF002C0DDABAF1010F04D00020D8
:1020A00014B00146BDE8F08D14B000204FF000419F
:1020B000BDE8F08D4FF0010808EBE77CCDF814C0C7
:1020C0005CEA0A0C0DD0DFF898C162457EDDDFF8CE
:1020D00094C1654B624512DD8B420ADB002C18DB94
:1020E00023E00120FFF752FC14B0BDE8F04DFFF7EC
:1020F00027BC554A8A4202DC002C0ADC15E09942D2
:1021000002DA002C11DA04E04F4B994219DD002C61
:102110000BDD0220FFF73AFCFFF718FC4B4A14B026
:1021200061F31E021146BDE8F08D0220FFF72EFC80
:10213000FFF714FC444A14B061F31E021146BDE8D7
:10214000F08D00223946FEF74CF907460D466FF038
:102150000102FEF798FB4FF05532444BFEF744F96D
:102160003A462B46FEF743F90022414BFEF73CF975
:1021700080468B463A462B4610461946FEF737F9FD
:1021800042465B46FEF733F988460E904FF0C04258
:10219000384B38462946FEF72AF983460091364ADD
:1021A000344B41460E98FEF722F980460191334A9E
:1021B000334B38462946FEF71AF94246019BFEF793
:1021C00010F90D4602460B460C9000E011E058460F
:1021D0000099FEF765F8002788465A463846009B66
:1021E000FEF7FFF82B460C9AFEF7FEF8024600F0C9
:1021F00079B90020B1F5801F07DA35222846194643
:10220000FEF741FB05466FF0340000EB2150A0F2D1
:10221000FF300190C1F3130040F07F6141F0405165
:10222000029118498842D8BF4FF0000B35DD16499E
:102230008142C8BF4FF0010B2FDC4FF0000B25E0AF
:10224000FFFF1F00FFFF0F000000F03F0000F07FC6
:102250000000404301FCFFFF5C0A00000000F0FFAB
:102260000000E0410000F043FFFFEF3F5555D53F30
:102270000000E03F4715F73FFE822B6544DF5DF825
:102280000BAE543E8E9803007AB60B000198401CAA
:1022900001900298A0F580100290FF4802997844BE
:1022A00000EBCB000991D0E9002328460B93129252
:1022B000FEF797F800910A9028460B9B129A09990D
:1022C000FDF7EEFF02460B460020F449FEF701F948
:1022D000CDE90C010B46024600990A98FEF787F8F3
:1022E0000690EF48884600277844029900681090CD
:1022F0004FF0005040EA610000EB8B4000F50021F8
:1023000002910B9B129A1098FEF76BF82A46099BD4
:10231000FEF76AF83A464346FEF769F808911290CC
:1023200038464146029B109AFEF761F8009B0A9AD4
:10233000FEF75AF8089B129AFEF753F8DDE90C23D2
:10234000FEF755F80B91069A12904346104619462F
:10235000FEF74DF805460246D2480B460A91062183
:102360007844FFF78EFA0A9B2A460891029010469D
:102370001946FEF73CF8089B029AFEF738F8054626
:102380000991434638461946069AFDF789FF0B9B8B
:10239000129AFEF72CF82A46099BFDF781FFCDE93A
:1023A00008013A46434610461946FEF720F80A91BE
:1023B0000022BD4B0090FDF773FFDDE90823FDF718
:1023C0006FFF0D463A46B84B3846FEF70AF80A9BAF
:1023D000009AFEF706F8DDE90823FEF705F8CDE9D7
:1023E00008013A462B4610464146FEF700F8009198
:1023F0000A90DDE908014346069AFDF7F8FF0690CA
:1024000088462B463A460B991298FDF7F0FF434653
:10241000069AFDF745FF80460B4602460D9100994E
:102420000A98FDF73DFF00200F460546009B0A9ADB
:10243000FDF7D7FF42460D9BFDF7D6FF88460E906D
:102440004FF06042994B28463946FDF7D0FF029184
:102450000090974A954B41460E98FDF7C8FF80467D
:102460000391944A944B28463946FDF7C0FF4246F3
:10247000039BFDF715FF914A7A4402EBCB03D3E9A6
:102480000023FDF70DFF054607910198FEF790F830
:102490000C9003912A46079B02990098FDF700FFD4
:1024A000874A7A4402EBCB03D3E900239346019396
:1024B000FDF7F6FE039B0C9AFDF7F2FE0027884617
:1024C0003846039B0C9AFDF78CFF5A46019BFDF79B
:1024D00088FF029B009AFDF784FF2A46079BFDF7C1
:1024E00083FF02460020069005986C4DAAF1010377
:1024F000184301D1734D069000200B4604903046DE
:102500002146FDF774FF82468B4623463046194626
:10251000049AFDF766FF3A464346FDF768FF5246C8
:102520005B46FDF7BDFE06468A463A4643462146CF
:102530000498FDF75CFF04460F4632465346FDF70C
:10254000AFFE614A8B46914221DBABEB020353EABB
:10255000000210D122463B46FDF743FF804603911F
:102560005A4A5B4B30465146FDF79AFE4246039B62
:10257000FEF7A0F927D20220FFF708FAFFF7E6F9E5
:102580000A46294614B062F31E01BDE8F08D514B96
:102590002BF000429A4216D34F4A0BEB020353EA48
:1025A000000208D122463B46FDF71BFF3246534648
:1025B000FEF780F907D80220FFF7E8F9FFF7CEF918
:1025C0000A462946DEE72BF000404449444A01EB25
:1025D00020514FF00008824223DA481C4FF480114A
:1025E00021FA00F058443F4AC0F30A517A443E4B66
:1025F000A1F2FF31CB4020EA0303C0F3130040F403
:10260000801CC1F1140012682CFA00F8BBF1000F15
:10261000B8BFC8F1000820463946FDF7E2FE04467F
:102620000F4622463B4630465146FDF739FE4FF0F5
:10263000000B5A462D4B58460391FDF7D8FE0091EA
:102640000A902B4A2B4B58460399FDF7D0FE049174
:10265000029022463B4658460399FDF7C2FE324699
:102660005346FDF7C1FE244A244BFDF7C0FE049BF0
:10267000029AFDF715FE07468A46009B0A9AFDF767
:102680000FFE04460E46009B0A9AFDF7AAFE3A4644
:102690005346FDF7A9FE33E0CE0600000000F03FF0
:1026A0000C0700003C0600000000084009C7EE3F90
:1026B000FD033ADCF5015B14E02F3EBE140500007B
:1026C000DA0400000000F0BF00009040FE822B659D
:1026D0004715973C00CC904000346F3F01FCFFFF52
:1026E0000000E03F08040000FFFF0F00432EE63F1C
:1026F000396CA80C615C20BEEF39FAFE422EE63F31
:102700000746224633460F9110461946FDF76FFEE5
:10271000834602462E488A460B4605217844FFF739
:10272000B0F85A465346FDF762FE22463346FDF79F
:102730005BFE82468B463A46204631460F9BFDF7AC
:1027400056FE3A460F9BFDF7ABFD0F460A9000225E
:102750004FF0804350465946FDF743FE03910090E9
:1027600052465B4620463146FDF741FE039B009AE8
:10277000FDF7AFFE3B460A9AFDF733FE224633468D
:10278000FDF72FFE0022134BFDF72EFE0E460446EA
:1027900001EB08510815002810DC4246204631465E
:1027A000FEF771F8FFF759F8042808BFFFF7D6F8CD
:1027B000424620463146FEF766F8044606980B4628
:1027C00014B022462946BDE8F04DFDF710BE0000CA
:1027D000B00200000000F03F2DE9F04106460F4630
:1027E000FEF792F804000D4618BF0120284320F0A0
:1027F0000040C0F17F6000F1E040C00F0ED0301CFF
:1028000018BF0120384320F00040C0F17F6000F184
:10281000E040C00F04BF0120FFF7B8F8204629466A
:10282000BDE8F08110B5044640F63400001B81B2CB
:102830004FF08040FEF78DFE10BD000000B587B060
:10284000012144F20400FEF711FB4FF48060ADF863
:10285000180004208DF81B0006A91848FEF7EFF9B0
:1028600025208DF8040003208DF805008DF8060062
:1028700001208DF8070001A8FEF7A2FA4FF41650C8
:1028800002900020ADF80C00ADF80E00ADF810007D
:10289000ADF814000C20ADF8120002A90848FEF7AC
:1028A00069FF012240F225510548FEF73DFF012155
:1028B0000348FEF703FF07B000BD00000008014019
:1028C000003801402DE9F04704462046FDF781FE1F
:1028D0000746074A074BFDF78AFD0546FDF79AFEB6
:1028E0001FFA80F949460448FEF733FEBDE8F08739
:1028F0009A9999999999C93F00040040462B0A3F3B
:10290000240A3ABF2C5461BFF059623F926A633F78
:102910006F53883FA815CC3DEDE1EFBFD0744E3E1C
:10292000C0A8DDBEF5F2A9BF585B79BFD8BFA93EEC
:10293000BD00A7BFC1AB853F17D5F93E37B2153EE5
:10294000526AF0BE6B717D3E48C601BEDE5773BD54
:10295000AA790C3D90BB97BE2E14363F9E38C1C05D
:10296000DD232C3FF23D7440211A1E400000000080
:10297000000000000000F03F000000000000F83FF1
:1029800000000000000000000000004003B8E23F2B
:10299000000000000000000006D0CF43EBFD4C3EDD
:1029A000033333333333E33FFFAB6FDBB66DDB3FD2
:1029B0004D268F515555D53F01411DA96074D13F1A
:1029C00065DBC9934A86CD3FEF4E454A287ECA3F14
:1029D0003E5555555555C53F93BDBE166CC166BF96
:1029E0002CDE25AF6A56113FF16BD2C541BDBBBE8F
:1029F000D0A4BE726937663E0000000000000000EF
:102A0000202A0008000000205C0000006C1900086B
:102A10007C2A00085C0000200C0400007C190008DF
:102A200000000000000000000000000000000000A6
:102A30000000000000000000000000000A0000008C
:102A40000A0000000A000000000016430000000019
:102A50000102030401020304060708090204060830
:102A600000A24A040000000000000000010203046C
:0C2A70000607080900000000000000003C
:0400000508000131BD
:00000001FF
